:020000040800F2
:1000000000800020210D0008310C0008390C000888
:10001000410C0008490C0008510C000800000000C9
:10002000000000000000000000000000590C000863
:10003000670C000800000000750C0008830C000825
:10004000710D0008710D0008710D0008710D000898
:10005000710D0008710D0008710D0008710D000888
:10006000710D0008710D0008710D0008710D000878
:10007000710D0008710D0008710D0008710D000868
:10008000710D000800000000710D0008710D0008DE
:10009000710D0008710D0008710D0008710D000848
:1000A000710D0008710D0008710D0008710D000838
:1000B000710D0008710D0008710D0008710D000828
:1000C000710D0008710D0008710D0008710D000818
:1000D000710D0008710D0008710D0008710D000808
:1000E000710D0008710D0008710D0008710D0008F8
:1000F000710D0008710D0008710D0008000000006E
:1001000000000000710D000800000000710D0008E3
:10011000710D000800000000710D0008710D00084D
:10012000710D0008710D0008710D0008710D0008B7
:10013000710D00080000000000000000710D0008B3
:10014000710D0008710D00080000000000000000A3
:10015000000000000000000000000000000000009F
:10016000000000000000000000000000710D000809
:10017000710D0008000000000000000000000000F9
:1001800000000000710D00080000000000000000E9
:10019000000000000000000000000000000000005F
:1001A0000000000000000000710D0008710D000843
:1001B000710D0008710D0008710D000800000000AD
:1001C00000000000710D00080000000000000000A9
:0801D000710D0008710D00081B
:1001E00010B5054C237833B9044B13B10448AFF371
:1001F00000800123237010BD5C000020000000007F
:100200000842000808B5034B1BB103490348AFF38C
:10021000008008BD000000006000002008420008C7
:10022000034613F8012B002AFBD1181A0138704736
:1002300001F0FF01102A2BDB10F0070F08D010F897
:10024000013B013A8B422DD010F0070F42B3F6D19B
:10025000F0B441EA012141EA014122F007047FF0B4
:1002600000070023F0E80256083C85EA010586EA0B
:10027000010685FA47F5A3FA87F586FA47F6A5FA47
:1002800087F68EB9EED1F0BC01F0FF0102F0070253
:1002900032B110F8013B013A83EA010313B1F8D1FE
:1002A0000020704701387047002D06BF35460338DF
:1002B000073815F0010F07D1013015F4807F02BF18
:1002C000013015F4C03F0130F0BC0138704700BF69
:1002D00053B94AB9002908BF00281CBF4FF0FF31AD
:1002E0004FF0FF3000F06AB9ADF1080C6DE904CEB3
:1002F00000F006F8DDF804E0DDE9022304B0704701
:100300002DE9F047089D0C46002B4ED194468C45B4
:100310008646B2FA82F262D94AB1C2F12003914014
:1003200020FA03F30CFA02FC194300FA02FE4FEA2A
:100330001C471FFA8CF6B1FBF7F44FEA1E4307FB8C
:10034000141143EA014304FB06F199420AD91CEB5C
:10035000030304F1FF3080F01281994240F20F81D3
:10036000023C6344591A1FFA8EF3B1FBF7F007FB06
:10037000101143EA014300FB06F69E420AD91CEB2A
:10038000030300F1FF3180F0FC809E4240F2F980CF
:10039000634402389B1B40EA044000211DB1D34056
:1003A0000022C5E90032BDE8F0878B4205D90DB1C6
:1003B000C5E9000100210846F5E7B3FA83F10029F9
:1003C00046D1A34202D39042C0F0F080861A64EB7B
:1003D00003030120002DE6D0C5E90063E3E7002A0E
:1003E00040F09080A1EB0C044FEA1C481FFA8CF7F8
:1003F0000121B4FBF8F64FEA1E4308FB164443EA1A
:10040000044307FB06F0984208D91CEB030306F1EE
:10041000FF3402D2984200F2CD8026461C1A1FFA01
:100420008EF3B4FBF8F008FB104443EA044300FBEE
:1004300007F79F4208D91CEB030300F1FF3402D2F7
:100440009F4200F2B0802046DB1B40EA0640A5E751
:10045000C1F120068B4022FA06F71F4320FA06FC62
:1004600004FA01F343EA0C03F44000FA01F8380CF3
:100470004FEA1349B4FBF0FE1FFA87FC00FB1E4451
:1004800049EA04440EFB0CF9A14502FA01F20AD92B
:100490003C190EF1FF3A80F08480A14540F2818042
:1004A000AEF1020E3C44A4EB09041FFA83F9B4FB3D
:1004B000F0F300FB134449EA044403FB0CFCA4459D
:1004C00007D93C1903F1FF3067D2A44565D9023B37
:1004D0003C4443EA0E40A0FB0293A4EB0C049C4274
:1004E000CE469C4651D34ED055B1B8EB0E0364EBCB
:1004F0000C0404FA06F6CB401E43CC40C5E9006468
:10050000002150E7C2F1200320FA03F10CFA02FCAB
:1005100024FA03F394400C434FEA1C4800FA02FE0D
:100520001FFA8CF7B3FBF8F008FB1031230C43EAF9
:10053000014300FB07F1994208D91CEB030300F1CA
:10054000FF362CD299422AD9023863445B1AA4B2EE
:10055000B3FBF8F108FB113344EA034401FB07F352
:10056000A34208D91CEB040401F1FF3613D2A342C5
:1005700011D902396444E41A41EA004139E70446DA
:10058000F0E6084606E7C845AED2B9EB020E63EBCB
:10059000070C0138A8E73146EDE7034699E73046F6
:1005A000D4E7D6467FE7634402384DE70646234644
:1005B00008460FE7023E634430E700BF704700BFC4
:1005C00080B58EB000AF204A3B1D07CA83E8070004
:1005D00040F211133B6100237B610023BB610923BF
:1005E000FB6100233B624FF480137B624FF40013E6
:1005F000BB620023FB6200233B633A1D07F110033B
:100600001946124800F0E6FE0346002B01D000F028
:10061000F3F900BF796B0D4801F028F80346002B71
:10062000F8D10B490B4803F04FF90A48FFF7F8FDE2
:1006300003469AB24FF0FF330649074802F0C8FA62
:1006400000BF3837BD4680BD484200087800002012
:100650003042000804020020DC00002080B59AB07F
:1006600000AF00BF4021154801F016F80346002BEB
:10067000F8D007F1340307F1400240210F4800F0A1
:10068000EDFE0346002B01D000F0B6F907F134026D
:100690003B460B49184603F017F93B461846FFF74F
:1006A000BFFD03469AB239464FF0FF33054802F0CA
:1006B0008FFA00BF6837BD4680BD00BF78000020BC
:1006C00054420008DC00002080B586B000AF00F086
:1006D00050FB00F025F800F04FF900F001F900F0B0
:1006E0006BF800F0B1F800233B6000237B6002232D
:1006F000BB600123FB6000233B610F237B613B4612
:100700001946064800F0E4FD044800F03BFEFFF700
:1007100057FFFFF7A3FF00BFFDE700BF78000020F1
:1007200080B594B000AF07F11803382200211846B5
:1007300003F0EAF83B1D00221A605A609A60DA6002
:100740001A614FF4007001F031FA0223BB614FF4DB
:1007500080737B624023BB6202237B630223BB6303
:100760000523FB6355233B6402237B640223BB64A4
:100770000823FB6407F11803184601F0BBFA03468F
:10078000002B01D000F038F90F237B600323BB60FE
:100790000023FB6000233B6100237B613B1D0121A3
:1007A000184601F0B9FD0346002B01D000F024F9F2
:1007B00000BF5037BD4680BD80B500AF204B214AF9
:1007C0001A601F4B00225A601D4B4FF440729A6012
:1007D0001B4B0322DA601A4B01221A74184B0022B9
:1007E0005A74174B00229A74154B02225A61144B0B
:1007F00001229A61124B0E22DA61114B02221A6217
:100800000F4B02225A620E4B01229A620C4B0E22AF
:10081000DA620B4B02221A63094B0E225A63084B11
:1008200004229A63064B0022DA63054800F0F6FBC7
:100830000346002B01D000F0DFF800BF80BD00BFF1
:10084000780000200064004080B500AF224B234AAE
:100850001A60214B4FF4E1325A601F4B00229A601C
:100860001D4B0022DA601C4B00221A611A4B0C222D
:100870005A61194B00229A61174B0022DA61164B1C
:1008800000221A62144B00225A62134B00229A6211
:10089000114802F04DF90346002B01D000F0ACF8EE
:1008A00000210D4802F046FF0346002B01D000F066
:1008B000A3F80021084802F07BFF0346002B01D07B
:1008C00000F09AF8044802F0FCFE0346002B01D029
:1008D00000F092F800BF80BDDC000020003801402D
:1008E00080B500AF224B234A1A60214B4FF4E1320E
:1008F0005A601F4B00229A601D4B0022DA601C4B8D
:1009000000221A611A4B0C225A61194B00229A617B
:10091000174B0022DA61164B00221A62144B002298
:100920005A62134B00229A62114802F001F9034601
:10093000002B01D000F060F800210D4802F0FAFE13
:100940000346002B01D000F057F80021084802F0C0
:100950002FFF0346002B01D000F04EF8044802F0B0
:10096000B0FE0346002B01D000F046F800BF80BD6A
:10097000700100200044004080B588B000AF07F14E
:100980000C0300221A605A609A60DA601A61184BF0
:10099000DB6C174A43F00103D364154BDB6C03F0A7
:1009A0000103BB60BB68124BDB6C114A43F00203CE
:1009B000D3640F4BDB6C03F002037B607B68002287
:1009C0004FF480710B4801F0D9F84FF48073FB604D
:1009D00001233B6100237B610023BB6107F10C0312
:1009E0001946044800F048FF00BF2037BD4680BDCF
:1009F000001002400004004880B400AF72B600BF8F
:100A000000BFFDE780B483B000AF0F4B1B6E0E4AF2
:100A100043F0010313660C4B1B6E03F001037B6074
:100A20007B68094B9B6D084A43F080539365064BE6
:100A30009B6D03F080533B603B6800BF0C37BD46A5
:100A40005DF8047B704700BF0010024080B59AB08B
:100A500000AF786007F1540300221A605A609A6070
:100A6000DA601A6107F1100344220021184602F0EF
:100A70004BFF7B681B68204A934239D14FF4805367
:100A80003B614FF000733B6407F11003184601F01F
:100A90005FFE0346002B01D0FFF7AEFF174B9B6DA7
:100AA000164A43F000739365144B9B6D03F000737B
:100AB000FB60FB68114BDB6C104A43F00103D3640D
:100AC0000E4BDB6C03F00103BB60BB684FF4C053FB
:100AD0007B650223BB650023FB6500233B6609237E
:100AE0007B6607F1540319464FF0904000F0C4FEB6
:100AF00000BF6837BD4680BD006400400010024062
:100B000080B59CB000AF786007F15C0300221A60EA
:100B10005A609A60DA601A6107F1180344220021D2
:100B2000184602F0F1FE7B681B683E4A934238D1BA
:100B30000123BB610023FB6107F11803184601F094
:100B400007FE0346002B01D0FFF756FF364B1B6E06
:100B5000354A43F480431366334B1B6E03F48043E2
:100B60007B617B69304BDB6C2F4A43F00103D3641C
:100B70002D4BDB6C03F001033B613B694FF4C06319
:100B8000FB6502233B6600237B660023BB660723CD
:100B9000FB6607F15C0319464FF0904000F06CFED5
:100BA0003BE07B681B68214A934236D10223BB613C
:100BB00000233B6207F11803184601F0C9FD034604
:100BC000002B01D0FFF718FF174B9B6D164A43F41B
:100BD00000339365144B9B6D03F40033FB60FB689B
:100BE000114BDB6C104A43F00103D3640E4BDB6CFA
:100BF00003F00103BB60BB680C23FB6502233B666B
:100C000000237B660023BB660723FB6607F15C03BA
:100C100019464FF0904000F02FFE00BF7037BD46E0
:100C200080BD00BF00380140001002400044004079
:100C300080B400AF00BFFDE780B400AF00BFFDE7A8
:100C400080B400AF00BFFDE780B400AF00BFFDE798
:100C500080B400AF00BFFDE780B400AF00BFBD4669
:100C60005DF8047B704780B400AF00BFBD465DF8FF
:100C7000047B704780B400AF00BFBD465DF8047BC5
:100C8000704780B500AF00F0C7F800BF80BD00001E
:100C900080B586B000AF7860144A154BD31A7B61DB
:100CA0007B693B61134B1B68002B02D1114B124A2D
:100CB0001A60104B1A687B6813443A699A4207D24B
:100CC00002F02AFE03460C221A604FF0FF3309E0BF
:100CD000084B1B68FB60074B1A687B681344054A86
:100CE0001360FB6818461837BD4680BD00800020A1
:100CF00000040000380200208803002080B400AF08
:100D0000064BD3F88830054A43F47003C2F88830A4
:100D100000BFBD465DF8047B704700BF00ED00E0FA
:100D20000D488546FFF7EAFF0C480D490D4A0023A0
:100D300002E0D458C4500433C4188C42F9D30A4A90
:100D40000A4C002301E013600432A242FBD302F0FC
:100D5000E9FDFFF7B9FCFEE700800020000000205D
:100D60005C000020004300085C0000208803002095
:100D7000FEE780B582B000AF0023FB71032000F0D6
:100D80001BF9002000F00EF80346002B02D00123CF
:100D9000FB7101E0FFF736FEFB7918460837BD46C8
:100DA00080BD000080B584B000AF78600023FB7385
:100DB000164B1B68002B22D0154B1A68134B1B686F
:100DC0004FF47A71B1FBF3F3B2FBF3F3184600F082
:100DD00018F90346002B0FD17B680F2B09D800228E
:100DE00079684FF0FF3000F0F2F80A4A7B68136030
:100DF00007E00123FB7304E00123FB7301E00123FF
:100E0000FB73FB7B18461037BD4680BD08000020F1
:100E1000000000200400002080B400AF054B1A68D9
:100E2000054B1B681344034A136000BFBD465DF8C1
:100E3000047B70473C0200200800002080B400AF13
:100E4000034B1B681846BD465DF8047B704700BF26
:100E50003C02002080B485B000AF78607B6803F06E
:100E60000703FB600C4BDB68BB60BA684FF6FF03FF
:100E70001340BB60FB681A02BB68134343F0BF63B7
:100E800043F40033BB60044ABB68D36000BF14372F
:100E9000BD465DF8047B704700ED00E080B400AF14
:100EA000044BDB681B0A03F007031846BD465DF8D8
:100EB000047B704700ED00E080B483B000AF0346D0
:100EC0003960FB7197F90730002B0ADB3B68DAB217
:100ED0000C4997F907301201D2B20B4483F8002372
:100EE0000AE03B68DAB20849FB7903F00F03043BE0
:100EF0001201D2B20B441A7600BF0C37BD465DF822
:100F0000047B704700E100E000ED00E080B489B0B0
:100F100000AFF860B9607A60FB6803F00703FB611B
:100F2000FB69C3F10703042B28BF0423BB61FB69E2
:100F30000433062B02D9FB69033B00E000237B61ED
:100F40004FF0FF32BB6902FA03F3DA43BB681A4081
:100F50007B699A404FF0FF317B6901FA03F3D94373
:100F60007B680B40134318462437BD465DF8047B6D
:100F70007047000080B582B000AF78607B68013BAD
:100F8000B3F1807F01D301230FE00A4A7B68013B64
:100F900053600F214FF0FF30FFF78EFF054B00220B
:100FA0009A60044B07221A60002318460837BD4692
:100FB00080BD00BF10E000E080B582B000AF786077
:100FC0007868FFF747FF00BF0837BD4680BD80B592
:100FD00086B000AF0346B9607A60FB73FFF75EFF2F
:100FE00078617A68B9687869FFF790FF024697F9E7
:100FF0000F3011461846FFF75FFF00BF1837BD4698
:1010000080BD80B582B000AF78607868FFF7B2FF2E
:10101000034618460837BD4680BD000080B584B041
:1010200000AF78607B68002B01D1012347E17B682A
:1010300093F85C30DBB2002B06D17B68002283F88A
:101040005D207868FFF702FD7B681B689A697B6802
:101050001B6822F010029A61FFF7F0FEF86012E0C0
:10106000FFF7ECFE0246FB68D31A0A2B0BD97B680C
:101070001B6E43F001027B681A667B68032283F8CB
:101080005C2001231BE17B681B689B6903F008035C
:10109000082BE5D07B681B689A697B681B6842F067
:1010A00001029A61FFF7CAFEF86012E0FFF7C6FE80
:1010B0000246FB68D31A0A2B0BD97B681B6E43F0E0
:1010C00001027B681A667B68032283F85C20012397
:1010D000F5E07B681B689B6903F00103002BE5D0FA
:1010E0007B681B689A697B681B6842F002029A6100
:1010F0007B681B68744A934203D1744A7B685B68BF
:1011000013607B681B7C012B08D17B681B689A6984
:101110007B681B6822F040029A6107E07B681B68CD
:101120009A697B681B6842F040029A617B685B7C2D
:10113000012B08D17B681B689A697B681B6842F4A5
:1011400080429A6107E07B681B689A697B681B682C
:1011500022F480429A617B689B7C012B08D17B68DA
:101160001B689A697B681B6822F480529A6107E0C9
:101170007B681B689A697B681B6842F480529A619D
:101180007B681B689B6923F440717B689A687B6865
:101190001B680A439A617B681B689A697B681B68B5
:1011A00022F0A4029A617B681B681A697B681B683D
:1011B00022F010021A617B68DB68012B08D17B6882
:1011C0001B689A697B681B6842F004029A612CE0F4
:1011D0007B68DB68002B28D07B68DB68022B1CD087
:1011E0007B681B689A697B681B6842F080029A6181
:1011F0007B681B681A697B681B6842F010021A61E1
:101200007B68DB68032B10D17B681B689A697B685D
:101210001B6842F020029A6107E07B681B689A69AC
:101220007B681B6842F020029A617B689B69013BE6
:101230005A067B68DB69013B1B021A437B681B6A09
:10124000013B42EA03017B685B69013B1A047B684E
:101250001B680A43DA617B689B68B3F5407F15D150
:101260007B689B6A5A1E7B68DB6A013B1B021A4340
:101270007B681B6B013B1B0142EA03017B685B6AD5
:10128000013B1A047B681B680A43DA607B681B68B1
:10129000D3F8C0107B68DA6B7B681B680A43C3F81D
:1012A000C020786800F016FA7B6800229A657B6897
:1012B00000221A667B68012283F85C20002318460E
:1012C0001037BD4680BD00BF00640040006500408F
:1012D00080B487B000AF786039607B6893F85C3089
:1012E000FB75FB7D012B02D0FB7D022B3DD13B68C2
:1012F0001B68002B19D13B689B689A073B68DB6829
:10130000DB061A433B681B691B041A433B685B6995
:1013100013433B617B681A6C3B685B689B0013441A
:10132000BB60BB683A691A601DE03B68DB685A071E
:101330003B681B6913433B613B689B689A073B68AA
:101340005B691343FB607B685A6C3B685B68DB003E
:101350001344BB60BB683A691A60BB680433BB6066
:10136000BB68FA681A60002306E07B681B6E43F0D6
:1013700002027B681A66012318461C37BD465DF8D9
:10138000047B704780B483B000AF78607B6893F8CB
:101390005C30DBB2012B10D17B68022283F85C2029
:1013A0007B681B689A697B681B6822F001029A615E
:1013B0007B6800221A66002306E07B681B6E43F000
:1013C00004027B681A66012318460C37BD465DF897
:1013D000047B704780B586B000AFF860B9607A6072
:1013E000FB6893F85C30DBB2022B2CD1FB681B68E6
:1013F000D3F8C43003F40013002B07D0FB681B6E36
:1014000043F40072FB681A66012323E0FB681B6843
:10141000D3F8C4301B0C03F003037B617B697A684B
:10142000B968F86800F0ACF9FB681B6801217A69BB
:1014300001FA02F2C3F8CC2001227B699A40FB68D2
:101440009A65002306E0FB681B6E43F00802FB6808
:101450001A66012318461837BD4680BD80B48BB08C
:1014600000AFF860B9607A603B600023FB61FB6805
:1014700093F85C30FB76FB7E022B40F0E880BB6883
:10148000402B37D1FB681B68D3F8903003F00F0373
:10149000002B07D1FB681B6E43F48072FB681A6651
:1014A0000123DBE0FB681B68D3F890301B0E03F0D0
:1014B0000103012B0AD1FB681B68D3F880305B0A5B
:1014C00003F00103012B01D10123FB61FB681B68C1
:1014D000D3F890301B0A03F00303FA691344FB614D
:1014E000FB68996CFA691346DB001344DB000B447C
:1014F0007B6236E0FB681B68D3F8983003F00F037B
:10150000002B07D1FB681B6E43F48072FB681A66E0
:101510000123A3E0FB681B68D3F898301B0E03F08F
:101520000103012B0AD1FB681B68D3F880301B0A2A
:1015300003F00103012B01D10123FB61FB681B6850
:10154000D3F898301B0A03F00303FA691344FB61D4
:10155000FB68D96CFA691346DB001344DB000B44CB
:101560007B627B6A1B6803F080427B685A607B6801
:101570005B68002B07D17B6A1B689B0CC3F30A02D4
:101580007B681A6005E07B6A1B6823F060427B6819
:101590001A607B6A1B6803F000527B689A607B6A62
:1015A0001B6803F000427B681A617B6A04337B622C
:1015B0007B6A1B689AB27B68DA617B6A1B681B0CCA
:1015C00003F00F027B68DA607B6A1B6803F4801209
:1015D0007B685A617B6A1B6803F400127B689A611E
:1015E0007B6A1B681B0E03F07F027B681A627B6AB2
:1015F0001B68DA0F7B685A627B6A04337B627B6A02
:101600007B6100233B620AE07A693B6A1A443968CD
:101610003B6A0B4412781A703B6A01333B627B6869
:10162000DB68114AD35C1A463B6A9342ECD3BB6831
:10163000402B05D1FB681B68FA69C3F8942004E0CD
:10164000FB681B68FA69C3F89C20002306E0FB686E
:101650001B6E43F00802FB681A66012318462C37FC
:10166000BD465DF8047B70478442000880B483B0B7
:1016700000AF786039607B681B68D3F8C8203B688E
:101680001340002B01D1002300E0012318460C3742
:10169000BD465DF8047B704780B485B000AF7860CC
:1016A00039603B68402B07D17B681B68D3F89030CA
:1016B00003F00F03FB6006E07B681B68D3F89830EB
:1016C00003F00F03FB60FB6818461437BD465DF856
:1016D000047B704780B485B000AF7860274BBB6057
:1016E0007B68BA681A647B681B68D3F8803023F47F
:1016F000F8117B685B6B1A047B681B680A43C3F8AC
:101700008020BB6803F170027B685A647B681B68A9
:10171000D3F8803023F070617B689B6B1A067B687E
:101720001B680A43C3F88020BB6803F1B0027B68E2
:101730009A64BB6803F5C4727B68DA64BB6803F51E
:1017400018727B681A65BB6803F51E727B685A6560
:10175000BB68FB6005E0FB6800221A60FB6804338D
:10176000FB60BB6803F55473FA689A42F3D300BF79
:1017700000BF1437BD465DF8047B704700A40040ED
:1017800080B489B000AFF860B9607A603B60BB6834
:101790005B68002B0AD1BB681A69BB689B681A4357
:1017A000BB681B689B041343FB610AE0BB681A69B2
:1017B000BB689B681A43BB681B68134343F08043B4
:1017C000FB61BB681B6A1A06BB68DB691A43BB680E
:1017D0009B691A43BB685B691A43BB68DB681B04DF
:1017E00013433B61FB68596D3A681346DB001344B1
:1017F000DB000B44BB61BB69FA691A60BB69043347
:10180000BB61BB693A691A60BB690433BB610023E1
:101810007B6120E07B6903337A6813441B781A06E6
:101820007B69023379680B441B781B041A437B697C
:10183000013379680B441B781B02134379687A697A
:101840000A4412781A43BB691A60BB690433BB614E
:101850007B6904337B61BB68DB68064AD35C1A464C
:101860007B699342D6D300BF00BF2437BD465DF8E5
:10187000047B70478442000880B487B000AF786072
:10188000396000237B615AE13B681A6801217B695A
:1018900001FA03F31340FB60FB68002B00F04C815E
:1018A0003B685B6803F00303012B05D03B685B6872
:1018B00003F00303022B30D17B689B683B617B699B
:1018C0005B00032202FA03F3DB433A6913403B61F6
:1018D0003B68DA687B695B0002FA03F33A691343F9
:1018E0003B617B683A699A607B685B683B61012277
:1018F0007B6902FA03F3DB433A6913403B613B68BF
:101900005B681B0903F001027B6902FA03F33A6981
:1019100013433B617B683A695A603B685B6803F03C
:101920000303032B17D07B68DB683B617B695B009B
:10193000032202FA03F3DB433A6913403B613B683D
:101940009A687B695B0002FA03F33A6913433B61CF
:101950007B683A69DA603B685B6803F00303022B3B
:1019600023D17B69DA087B68083253F822303B6167
:101970007B6903F007039B000F2202FA03F3DB43AA
:101980003A6913403B613B681A697B6903F00703BE
:101990009B0002FA03F33A6913433B617B69DA085F
:1019A0007B680832396943F822107B681B683B6109
:1019B0007B695B00032202FA03F3DB433A691340BD
:1019C0003B613B685B6803F003027B695B0002FAE2
:1019D00003F33A6913433B617B683A691A603B68D9
:1019E0005B6803F44033002B00F0A6805B4B1B6E5A
:1019F0005A4A43F001031366584B1B6E03F0010370
:101A0000BB60BB68564A7B699B08023352F823309F
:101A10003B617B6903F003039B000F2202FA03F38F
:101A2000DB433A6913403B617B68B3F1904F1FD0B1
:101A30007B684C4A934219D07B684B4A934213D03F
:101A40007B684A4A93420DD07B68494A934207D04B
:101A50007B68484A934201D105230AE0062308E047
:101A6000042306E0032304E0022302E0012300E054
:101A700000237A6902F00302920093403A6913430B
:101A80003B6137497B699B0802333A6941F823205F
:101A9000394B9B683B61FB68DB433A6913403B6110
:101AA0003B685B6803F48013002B03D03A69FB6842
:101AB00013433B61304A3B6993602F4BDB683B61CA
:101AC000FB68DB433A6913403B613B685B6803F4A6
:101AD0000013002B03D03A69FB6813433B61264A8D
:101AE0003B69D360244B5B683B61FB68DB433A692D
:101AF00013403B613B685B6803F40033002B03D069
:101B00003A69FB6813433B611B4A3B6953601A4BBC
:101B10001B683B61FB68DB433A6913403B613B68F0
:101B20005B6803F48033002B03D03A69FB681343EE
:101B30003B61114A3B6913607B6901337B613B6800
:101B40001A687B6922FA03F3002B7FF49DAE00BF75
:101B500000BF1C37BD465DF8047B70470010024093
:101B6000000001400004004800080048000C004844
:101B700000100048001400480004014080B483B005
:101B800000AF78600B467B8013467B707B78002B20
:101B900003D07A887B689A6102E07A887B689A62CF
:101BA00000BF0C37BD465DF8047B704780B485B03C
:101BB00000AF78607B68002B41D14B4B1B6803F46E
:101BC000C063B3F5806F31D1474BD3F88030464ABC
:101BD00023F48073C2F88030434B1B6823F4C06346
:101BE000414A43F400731360404B1B68322202FBEE
:101BF00003F33F4AA2FB03239B0C0133FB6002E08B
:101C0000FB68013BFB60384B5B6903F48063B3F511
:101C1000806F02D1FB68002BF2D1334B5B6903F478
:101C20008063B3F5806F58D1032357E02E4BD3F870
:101C300080302D4A23F48073C2F880304DE07B68F9
:101C4000B3F5007F41D1284B1B6803F4C063B3F5A3
:101C5000806F31D1244BD3F88030234A43F4807312
:101C6000C2F88030204B1B6823F4C0631E4A43F443
:101C7000007313601D4B1B68322202FB03F31C4AE6
:101C8000A2FB03239B0C0133FB6002E0FB68013BDA
:101C9000FB60154B5B6903F48063B3F5806F02D181
:101CA000FB68002BF2D1104B5B6903F48063B3F542
:101CB000806F12D1032311E00B4BD3F880300A4A16
:101CC00043F48073C2F8803007E0074B1B6823F4AD
:101CD000C063054A43F48063136000231846143739
:101CE000BD465DF8047B7047007000400000002096
:101CF00083DE1B4380B588B000AF78607B68002B23
:101D000001D10123FEE27B681B6803F00103002B75
:101D100075D0974B9B6803F00C03BB61944BDB6859
:101D200003F003037B61BB690C2B02D17B69032B9E
:101D300002D0BB69082B0BD18D4B1B6803F4003319
:101D4000002B5BD07B685B68002B57D10123D9E265
:101D50007B685B68B3F5803F06D1854B1B68844A7E
:101D600043F4803313601DE07B685B68B3F5A02FFC
:101D70000CD17F4B1B687E4A43F4802313607C4B5D
:101D80001B687B4A43F4803313600BE0784B1B687D
:101D9000774A23F480331360754B1B68744A23F42D
:101DA000802313607B685B68002B13D0FFF746F835
:101DB000386108E0FFF742F802463B69D31A642B0A
:101DC00001D903239EE26A4B1B6803F40033002B06
:101DD000F0D014E0FFF732F8386108E0FFF72EF892
:101DE00002463B69D31A642B01D903238AE2604B74
:101DF0001B6803F40033002BF0D100E000BF7B68C8
:101E00001B6803F00203002B75D0594B9B6803F04D
:101E10000C03BB61564BDB6803F003037B61BB69BA
:101E20000C2B02D17B69022B02D0BB69042B1FD182
:101E30004F4B1B6803F48063002B05D07B68DB6885
:101E4000002B01D101235DE2494B5B6823F0FE4288
:101E50007B681B691B06464913434B60454B1B6857
:101E60001846FEF79FFF0346002B43D0012349E2AB
:101E70007B68DB68002B23D03D4B1B683C4A43F456
:101E800080731360FEF7DAFF386108E0FEF7D6FFD3
:101E900002463B69D31A022B01D9032332E2344BA9
:101EA0001B6803F48063002BF0D0314B5B6823F098
:101EB000FE427B681B691B062D4913434B601AE0E9
:101EC0002B4B1B682A4A23F480731360FEF7B6FF7E
:101ED000386108E0FEF7B2FF02463B69D31A022BD5
:101EE00001D903230EE2224B1B6803F48063002B0D
:101EF000F0D100E000BF7B681B6803F00803002BF3
:101F000041D07B685B69002B1CD0194BD3F894300F
:101F1000174A43F00103C2F89430FEF78FFF38618F
:101F200008E0FEF78BFF02463B69D31A022B01D96A
:101F30000323E7E10E4BD3F8943003F00203002BA8
:101F4000EFD020E00A4BD3F89430094A23F0010384
:101F5000C2F89430FEF772FF38610DE0FEF76EFFB5
:101F600002463B69D31A022B06D90323CAE100BFFC
:101F700000100240040000208C4BD3F8943003F092
:101F80000203002BEAD17B681B6803F00403002BDB
:101F900000F0A6800023FB77844B9B6D03F08053F9
:101FA000002B01D1012300E00023002B0DD07F4B3B
:101FB0009B6D7E4A43F0805393657C4B9B6D03F091
:101FC0008053FB60FB680123FB77794B1B6803F4AC
:101FD0008073002B18D1764B1B68754A43F48073CD
:101FE0001360FEF72BFF386108E0FEF727FF02467B
:101FF0003B69D31A022B01D9032383E16C4B1B6885
:1020000003F48073002BF0D07B689B68012B08D110
:10201000664BD3F89030654A43F00103C2F8903024
:1020200024E07B689B68052B10D1604BD3F890307F
:102030005E4A43F00403C2F890305C4BD3F8903012
:102040005A4A43F00103C2F890300FE0574BD3F8DF
:102050009030564A23F00103C2F89030534BD3F826
:102060009030524A23F00403C2F890307B689B689A
:10207000002B16D0FEF7E2FE38610AE0FEF7DEFE26
:1020800002463B69D31A41F28832934201D90323B5
:1020900038E1464BD3F8903003F00203002BEDD02B
:1020A00015E0FEF7CBFE38610AE0FEF7C7FE0246F8
:1020B0003B69D31A41F28832934201D9032321E1CB
:1020C0003A4BD3F8903003F00203002BEDD1FB7FA5
:1020D000012B05D1354B9B6D344A23F0805393651A
:1020E0007B681B6803F02003002B3CD07B689B6956
:1020F000002B1CD02D4BD3F898302C4A43F0010311
:10210000C2F89830FEF79AFE386108E0FEF796FEB6
:1021100002463B69D31A022B01D90323F2E0234B79
:10212000D3F8983003F00203002BEFD01BE01F4BD5
:10213000D3F898301D4A23F00103C2F89830FEF717
:102140007DFE386108E0FEF779FE02463B69D31A4E
:10215000022B01D90323D5E0144BD3F8983003F0B8
:102160000203002BEFD17B68DB69002B00F0C980F4
:102170000E4B9B6803F00C030C2B00F083807B68F4
:10218000DB69022B5ED1094B1B68084A23F0807380
:102190001360FEF753FE38610CE0FEF74FFE024677
:1021A0003B69D31A022B05D90323ABE00010024090
:1021B00000700040554B1B6803F00073002BECD1FE
:1021C000524BDA68524B13407A68116A7A68526A45
:1021D000013A120111437A68926A120211437A6835
:1021E000126B5208013A520511437A68526B520839
:1021F000013A520611437A68D26AD2060A43434929
:102200001343CB60414B1B68404A43F0807313601B
:102210003E4BDB683D4A43F08073D360FEF70EFE11
:10222000386108E0FEF70AFE02463B69D31A022B2A
:1022300001D9032366E0354B1B6803F00073002BC4
:10224000F0D05EE0314B1B68304A23F0807313609E
:10225000FEF7F4FD386108E0FEF7F0FD02463B6949
:10226000D31A022B01D903234CE0284B1B6803F03F
:102270000073002BF0D1254BDA682449254B13401D
:10228000CB603EE07B68DB69012B01D1012339E0A3
:102290001E4BDB687B617B6903F003027B681B6A72
:1022A0009A422CD17B6903F0F0027B685B6A013BA8
:1022B0001B019A4223D17B6903F4FE427B689B6A2F
:1022C0001B029A421BD17B6903F078427B68DB6A70
:1022D000DB069A4213D17B6903F4C0027B681B6B57
:1022E0005B08013B5B059A4209D17B6903F0C06240
:1022F0007B685B6B5B08013B5B069A4201D0012364
:1023000000E0002318462037BD4680BD0010024083
:102310000C809F01FCFFEEFE80B586B000AF7860B8
:10232000396000237B617B68002B01D101231EE112
:10233000914B1B6803F00F033A689A4210D98E4BF9
:102340001B6823F00F028C493B6813430B608A4BD8
:102350001B6803F00F033A689A4201D0012306E19B
:102360007B681B6803F00103002B73D07B685B68FC
:10237000032B29D1814B1B6803F00073002B01D183
:102380000123F4E000F09EF938613B697C4A9342F6
:102390003FD97A4B9B6803F0F003002B09D07B6890
:1023A0001B6803F00203002B33D07B689B68002B73
:1023B0002FD1724B9B6823F0F003704A43F08003E7
:1023C000936080237B6124E07B685B68022B07D1EC
:1023D0006A4B1B6803F40033002B09D10123C6E0CC
:1023E000664B1B6803F48063002B01D10123BEE020
:1023F00000F0CEF838613B69614A934209D95F4BDE
:102400009B6823F0F0035D4A43F0800393608023D0
:102410007B615A4B9B6823F003027B685B685749DA
:1024200013438B60FEF70AFDF8600AE0FEF706FD35
:102430000246FB68D31A41F28832934201D9032342
:1024400095E04E4B9B6803F00C027B685B689B0039
:102450009A42EBD17B681B6803F00203002B23D068
:102460007B681B6803F00403002B05D0434B9B687B
:10247000424A43F4E06393607B681B6803F00803FF
:10248000002B07D03D4B9B6823F47C533B4A43F41D
:10249000E0639360394B9B6823F0F0027B689B6894
:1024A000364913438B6008E07B69802B05D1334BA1
:1024B0009B68324A23F0F00393602F4B1B6803F0B4
:1024C0000F033A689A421DD22B4B1B6823F00F0270
:1024D00029493B6813430B60FEF7B0FCF8600AE043
:1024E000FEF7ACFC0246FB68D31A41F288329342F5
:1024F00001D903233BE0204B1B6803F00F033A682C
:102500009A42EDD17B681B6803F00403002B08D0CE
:102510001A4B9B6823F4E0627B68DB68174913431E
:102520008B607B681B6803F00803002B09D0134BFA
:102530009B6823F460527B681B69DB000F491343DF
:102540008B6000F025F802460C4B9B681B0903F0DA
:102550000F030C49CB5C03F01F0322FA03F30A4A72
:1025600013600A4B1B681846FEF71CFC034618460E
:102570001837BD4680BD00BF002002400010024059
:1025800000B4C4046C4200080000002004000020D5
:1025900080B487B000AF2C4B9B6803F00C03042B76
:1025A00002D12A4B3B6147E0274B9B6803F00C03A9
:1025B000082B02D1264B3B613EE0234B9B6803F086
:1025C0000C030C2B36D1204BDB6803F00303FB60BC
:1025D0001D4BDB681B0903F00F030133BB60FB6875
:1025E000032B0CD11A4ABB68B2FBF3F3164AD2682C
:1025F000120A02F07F0202FB03F37B610CE0134A34
:10260000BB68B2FBF3F3104AD268120A02F07F02F1
:1026100002FB03F37B6100BF0B4BDB685B0E03F037
:10262000030301335B007B607A697B68B2FBF3F3E1
:102630003B6101E000233B613B6918461C37BD4606
:102640005DF8047B704700BF001002400024F400D6
:1026500000127A0080B400AF034B1B681846BD46D9
:102660005DF8047B704700BF0000002080B500AF1C
:10267000FFF7F0FF0246064B9B681B0A03F00703B7
:102680000449CB5C03F01F0322FA03F3184680BD14
:10269000001002407C42000880B500AFFFF7DAFF6F
:1026A0000246064B9B68DB0A03F007030449CB5C38
:1026B00003F01F0322FA03F3184680BD0010024006
:1026C0007C42000880B487B000AF1E4BDB6803F08B
:1026D00003033B611B4BDB681B0903F00F03013352
:1026E000FB603B69032B0CD1174AFB68B2FBF3F389
:1026F000144AD268120A02F07F0202FB03F37B61E4
:102700000CE0124AFB68B2FBF3F30E4AD268120ADD
:1027100002F07F0202FB03F37B6100BF094BDB6821
:102720005B0E03F0030301335B00BB607A69BB6897
:10273000B2FBF3F37B607B6818461C37BD465DF83F
:10274000047B70470010024000127A000024F4005D
:1027500080B586B000AF78600023FB740023BB74A3
:102760007B681B6803F40023002B00F09880002393
:102770007B74434B9B6D03F08053002B0DD1404B7A
:102780009B6D3F4A43F0805393653D4B9B6D03F037
:102790008053BB60BB6801237B743A4B1B68394A8A
:1027A00043F480731360FEF749FBF86009E0FEF71D
:1027B00045FB0246FB68D31A022B02D90323FB74A4
:1027C00005E0304B1B6803F48073002BEFD0FB7CDB
:1027D000002B59D12A4BD3F8903003F440737B611E
:1027E0007B69002B1ED07B681B6C7A699A4219D0DA
:1027F000234BD3F8903023F440737B61204BD3F804
:1028000090301F4A43F48033C2F890301C4BD3F809
:1028100090301B4A23F48033C2F89030184A7B6909
:10282000C2F890307B6903F00103002B16D0FEF74D
:1028300005FBF8600BE0FEF701FB0246FB68D31ACC
:1028400041F28832934202D90323FB7406E00C4B19
:10285000D3F8903003F00203002BECD0FB7C002B6C
:102860000BD1074BD3F8903023F440727B681B6C7C
:1028700003491343C1F8903008E0FB7CBB7405E0CA
:102880000010024000700040FB7CBB747B7C012B7D
:1028900005D1A64B9B6DA54A23F0805393657B68B9
:1028A0001B6803F00103002B0AD0A04BD3F888303B
:1028B00023F003027B685B689C491343C1F88830AE
:1028C0007B681B6803F00203002B0AD0974BD3F8F8
:1028D000883023F00C027B689B6894491343C1F84D
:1028E00088307B681B6803F00403002B0AD08F4BF1
:1028F000D3F8883023F030027B68DB688B491343C0
:10290000C1F888307B681B6803F00803002B0AD0ED
:10291000864BD3F8883023F0C0027B681B6983495B
:102920001343C1F888307B681B6803F02003002B39
:102930000AD07E4BD3F8883023F440627B685B6911
:102940007A491343C1F888307B681B6803F0400361
:10295000002B0AD0754BD3F8883023F440527B68A3
:102960009B6972491343C1F888307B681B6803F088
:102970008003002B0AD06D4BD3F8883023F44042FB
:102980007B68DB6969491343C1F888307B681B6841
:1029900003F48073002B0AD0644BD3F8883023F4FF
:1029A00040327B681B6A61491343C1F888307B68F9
:1029B0001B6803F40073002B0AD05C4BD3F88830FB
:1029C00023F440227B685B6A58491343C1F888307E
:1029D0007B681B6803F48063002B15D0534BD3F83E
:1029E000883023F440127B689B6A50491343C1F836
:1029F00088307B689B6AB3F5801F05D14B4BDB6841
:102A00004A4A43F48013D3607B681B6803F4006375
:102A1000002B15D0454BD3F8883023F440027B6857
:102A2000DB6A42491343C1F888307B68DB6AB3F53F
:102A3000800F05D13D4BDB683C4A43F48013D360E3
:102A40007B681B6803F48053002B15D0374BD3F8F9
:102A5000883023F040727B681B6B34491343C1F804
:102A600088307B681B6BB3F1807F05D12F4BDB680F
:102A70002E4A43F48013D3607B681B6803F4005331
:102A8000002B15D0294BD3F8883023F040627B68A7
:102A90005B6B26491343C1F888307B685B6BB3F1ED
:102AA000006F05D1214BDB68204A43F48013D360CB
:102AB0007B681B6803F48043002B15D01B4BD3F8B5
:102AC000883023F040627B689B6B18491343C1F840
:102AD00088307B689B6BB3F1006F05D1134BDB68CB
:102AE000124A43F48013D3607B681B6803F40043ED
:102AF000002B15D00D4BD3F8883023F040527B6863
:102B0000DB6B0A491343C1F888307B68DB6BB3F198
:102B1000805F05D1054BDB68044A43F48033D36002
:102B2000BB7C18461837BD4680BD00BF0010024070
:102B300080B582B000AF78607B68002B01D10123A3
:102B400042E07B68D3F88830002B06D17B680022F6
:102B500083F884207868FDF7D3FF7B682422C3F8CC
:102B600088207B681B681A687B681B6822F001025A
:102B70001A607B689B6A002B02D0786800F082FBA9
:102B8000786800F0B3F80346012B01D101231BE064
:102B90007B681B685A687B681B6822F490425A6005
:102BA0007B681B689A687B681B6822F02A029A601F
:102BB0007B681B681A687B681B6842F001021A6018
:102BC000786800F001FC034618460837BD4680BD12
:102BD00080B58AB002AFF860B9603B601346FB80F5
:102BE000FB68D3F88830202B7BD1BB68002B02D048
:102BF000FB88002B01D1012374E0FB680022C3F89D
:102C00009020FB682122C3F88820FEF717F978612D
:102C1000FB68FA88A3F85420FB68FA88A3F85620CA
:102C2000FB689B68B3F5805F08D1FB681B69002BCC
:102C300004D10023FB61BB68BB6103E0BB68FB619F
:102C40000023BB6130E03B6800937B690022802158
:102C5000F86800F063FC0346002B05D0FB682022D7
:102C6000C3F8882003233DE0FB69002B0BD1BB692F
:102C70001B881A46FB681B68C2F308029A62BB698C
:102C80000233BB6107E0FB691A78FB681B689A6234
:102C9000FB690133FB61FB68B3F856309BB2013B23
:102CA0009AB2FB68A3F85620FB68B3F856309BB283
:102CB000002BC8D13B6800937B6900224021F86853
:102CC00000F02CFC0346002B05D0FB682022C3F843
:102CD0008820032306E0FB682022C3F88820002315
:102CE00000E0022318462037BD4680BD2DE9B04FD5
:102CF0008CB000AF7861002387F82A307B699A682E
:102D00007B691B691A437B695B691A437B69DB69D1
:102D10001343FB627B691B681A68AB4B13407A69EB
:102D20001268F96A0B4313607B691B685B6823F4C4
:102D300040517B69DA687B691B680A435A607B698A
:102D40009B69FB627B691B68A04A934204D07B6944
:102D50001B6AFA6A1343FB627B691B689B6823F05A
:102D60006E4323F430637A691268F96A0B43936007
:102D70007B691B68DB6A23F00F017B695A6A7B69F8
:102D80001B680A43DA627B691B68914A934225D12A
:102D9000904BD3F8883003F00303032B1AD801A219
:102DA00052F823F0B52D0008C52D0008BD2D0008F0
:102DB000CD2D0008012387F82B30D6E0022387F8B9
:102DC0002B30D2E0042387F82B30CEE0082387F89D
:102DD0002B30CAE0102387F82B30C6E07B691B68D4
:102DE0007D4A934238D17B4BD3F8883003F00C03F3
:102DF0000C2B2DD801A252F823F000BF312E000871
:102E0000512E0008512E0008512E0008412E0008B6
:102E1000512E0008512E0008512E0008392E0008AE
:102E2000512E0008512E0008512E0008492E00088E
:102E3000002387F82B3098E0022387F82B3094E0AA
:102E4000042387F82B3090E0082387F82B308CE0A0
:102E5000102387F82B3088E07B691B685F4A934218
:102E600025D15C4BD3F8883003F03003302B16D0DB
:102E7000302B18D8202B0AD0202B14D8002B02D0AE
:102E8000102B08D00FE0002387F82B306DE00223D1
:102E900087F82B3069E0042387F82B3065E008239E
:102EA00087F82B3061E0102387F82B305DE07B69D9
:102EB0001B684B4A934225D1464BD3F8883003F028
:102EC000C003C02B16D0C02B18D8802B0AD0802B63
:102ED00014D8002B02D0402B08D00FE0002387F835
:102EE0002B3042E0022387F82B303EE0042387F8A2
:102EF0002B303AE0082387F82B3036E0102387F890
:102F00002B3032E07B691B68304A93422AD1314B27
:102F1000D3F8883003F44063B3F5406F1AD0B3F5AB
:102F2000406F1BD8B3F5006F0CD0B3F5006F15D808
:102F3000002B03D0B3F5806F08D00FE0002387F893
:102F40002B3012E0022387F82B300EE0042387F8A1
:102F50002B300AE0082387F82B3006E0102387F88F
:102F60002B3002E0102387F82B307B691B68174A4F
:102F7000934240F0A88097F82B30082B34D801A258
:102F800052F823F0A92F0008E92F0008B12F0008FC
:102F9000E92F0008B72F0008E92F0008E92F0008E3
:102FA000E92F0008BF2F0008FFF760FB786221E0DF
:102FB0000C4B7B621EE0FFF7EBFA78621AE04FF4ED
:102FC00000437B6216E000BFF369FFCF0080004042
:102FD000003801400010024000440040004800401A
:102FE000004C00400024F40000237B62012387F89A
:102FF0002A3000BF7B6A002B00F02A817B695B6A64
:103000009E4A32F813301A467B6AB3FBF2F3BB6177
:103010007B695A6813465B001344BA699A4205D328
:103020007B695B681B03BA699A4203D9012387F85D
:103030002A300DE17B6A0022BB60FA607B695B6A23
:103040008E4A32F813309BB200223B607A60D7E997
:103050000023D7E90201FDF73BF902460B46104673
:1030600019464FF000024FF000030B0243EA1063D1
:10307000020279694968490800200C46054612EBAE
:10308000040843EB05097B695B6800229A46934676
:1030900052465B4640464946FDF71AF902460B4642
:1030A00013463B623B6AB3F5407F08D33B6AB3F5F6
:1030B000801F04D27B691B683A6ADA60C8E001238A
:1030C00087F82A30C4E07B69DB69B3F5004F67D12C
:1030D00097F82B30082B28D801A252F823F000BF14
:1030E000053100080D310008153100082B310008AA
:1030F0001B3100082B3100082B3100082B31000850
:1031000023310008FFF7B2FA786214E0FFF7C4FA3F
:10311000786210E05A4B7B620DE0FFF739FA786273
:1031200009E04FF400437B6205E000237B6201234A
:1031300087F82A3000BF7B6A002B00F089807B690A
:103140005B6A4E4A32F813301A467B6AB3FBF2F3DD
:103150005A007B695B685B081A447B695B68B2FB59
:10316000F3F33B623B6A0F2B16D93B6AB3F5803F02
:1031700012D23B6A9BB223F00F03FB833B6A5B08CE
:103180009BB203F007039AB2FB8B1343FB837B696B
:103190001B68FA8BDA605BE0012387F82A3057E07E
:1031A00097F82B30082B28D801A252F823F000BF43
:1031B000D5310008DD310008E5310008FB31000899
:1031C000EB310008FB310008FB310008FB3100083F
:1031D000F3310008FFF74AFA786214E0FFF75CFA6F
:1031E000786210E0264B7B620DE0FFF7D1F9786240
:1031F00009E04FF400437B6205E000237B6201237A
:1032000087F82A3000BF7B6A002B21D07B695B6A7C
:103210001A4A32F813301A467B6AB3FBF2F27B6922
:103220005B685B081A447B695B68B2FBF3F33B6243
:103230003B6A0F2B09D93B6AB3F5803F05D23B6A45
:103240009AB27B691B68DA6002E0012387F82A30B2
:103250007B690122A3F86A207B690122A3F8682018
:103260007B6900225A677B6900229A6797F82A30A7
:1032700018463037BD46BDE8B08F00BF9442000805
:103280000024F40080B483B000AF78607B689B6A50
:1032900003F00803002B0AD07B681B685B6823F4EB
:1032A00000417B689A6B7B681B680A435A607B68A5
:1032B0009B6A03F00103002B0AD07B681B685B68E4
:1032C00023F400317B68DA6A7B681B680A435A6022
:1032D0007B689B6A03F00203002B0AD07B681B68A3
:1032E0005B6823F480317B681A6B7B681B680A4338
:1032F0005A607B689B6A03F00403002B0AD07B684A
:103300001B685B6823F480217B685A6B7B681B68B1
:103310000A435A607B689B6A03F01003002B0AD0B3
:103320007B681B689B6823F480517B68DA6B7B6841
:103330001B680A439A607B689B6A03F02003002B9A
:103340000AD07B681B689B6823F400517B681A6C69
:103350007B681B680A439A607B689B6A03F04003A2
:10336000002B1AD07B681B685B6823F480117B6894
:103370005A6C7B681B680A435A607B685B6CB3F5C8
:10338000801F0AD17B681B685B6823F4C0017B68DF
:103390009A6C7B681B680A435A607B689B6A03F0DF
:1033A0008003002B0AD07B681B685B6823F4002134
:1033B0007B68DA6C7B681B680A435A6000BF0C3775
:1033C000BD465DF8047B704780B598B002AF786069
:1033D0007B680022C3F89020FDF730FD78657B689C
:1033E0001B681B6803F00803082B2FD16FF07E4386
:1033F00000937B6D00224FF40011786800F08EF886
:103400000346002B22D07B681B68BB63BB6B53E871
:10341000003F7B637B6B23F080033B657B681B680D
:103420001A463B6D7B643A64396C7A6C41E8002340
:10343000FB63FB6B002BE6D17B682022C3F888205E
:103440007B68002283F88420032363E07B681B6889
:103450001B6803F00403042B49D16FF07E430093F3
:103460007B6D00224FF48001786800F057F8034626
:10347000002B3CD07B681B687B627B6A53E8003F73
:103480003B623B6A23F49073FB647B681B681A46BB
:10349000FB6C3B63FA62F96A3A6B41E80023BB625A
:1034A000BB6A002BE6D17B681B6808333B613B6934
:1034B00053E8003FFB60FB6823F00103BB647B68BB
:1034C0001B680833BA6CFA61BB61B969FA6941E8F3
:1034D00000237B617B69002BE5D17B682022C3F848
:1034E0008C207B68002283F88420032312E07B6811
:1034F0002022C3F888207B682022C3F88C207B68B8
:103500000022DA667B6800221A677B68002283F853
:103510008420002318465837BD4680BD80B584B04E
:1035200000AFF860B9603B601346FB714FE0BB69C8
:10353000B3F1FF3F4BD0FDF781FC02463B68D31A45
:10354000BA699A4202D3BB69002B01D103234EE032
:10355000FB681B681B6803F00403002B37D0BB68B3
:10356000802B34D0BB68402B31D0FB681B68DB69F3
:1035700003F00803082B10D1FB681B6808221A62AD
:10358000F86800F038F8FB680822C3F89020FB6860
:10359000002283F88420012329E0FB681B68DB6993
:1035A00003F40063B3F5006F11D1FB681B684FF49F
:1035B00000621A62F86800F01EF8FB682022C3F867
:1035C0009020FB68002283F8842003230FE0FB682F
:1035D0001B68DA69BB681340BA689A420CBF0123C2
:1035E0000023DBB21A46FB799A42A0D0002318468A
:1035F0001037BD4680BD80B495B000AF78607B6861
:103600001B687B637B6B53E8003F3B633B6B23F49E
:103610009073FB647B681B681A46FB6C3B64FA631F
:10362000F96B3A6C41E80023BB63BB6B002BE6D11E
:103630007B681B6808333B623B6A53E8003FFB61D1
:10364000FB6923F0805323F00103BB647B681B6894
:103650000833BA6CFA62BB62B96AFA6A41E80023BD
:103660007B627B6A002BE3D17B68DB6E012B18D178
:103670007B681B68FB60FB6853E8003FBB60BB686E
:1036800023F010037B647B681B681A467B6CBB616C
:103690007A617969BA6941E800233B613B69002B93
:1036A000E6D17B682022C3F88C207B680022DA6692
:1036B0007B6800225A6700BF5437BD465DF8047B23
:1036C000704780B485B000AF78607B6893F8843031
:1036D000012B01D1022327E07B68012283F884209B
:1036E0007B682422C3F888207B681B681B68FB600A
:1036F0007B681B681A687B681B6822F001021A60ED
:10370000FB6823F00053FB607B6800225A667B68ED
:103710001B68FA681A607B682022C3F888207B68DF
:10372000002283F88420002318461437BD465DF834
:10373000047B704780B584B000AF786039607B68E7
:1037400093F88430012B01D102232DE07B68012204
:1037500083F884207B682422C3F888207B681B6858
:103760001B68FB607B681B681A687B681B6822F01B
:1037700001021A607B681B689B6823F060417B68CC
:103780001B683A680A439A60786800F04FF87B68D3
:103790001B68FA681A607B682022C3F888207B685F
:1037A000002283F88420002318461037BD4680BDD0
:1037B00080B584B000AF786039607B6893F884305E
:1037C000012B01D102232DE07B68012283F88420A4
:1037D0007B682422C3F888207B681B681B68FB6019
:1037E0007B681B681A687B681B6822F001021A60FC
:1037F0007B681B689B6823F060617B681B683A6884
:103800000A439A60786800F011F87B681B68FA68D0
:103810001A607B682022C3F888207B68002283F826
:103820008420002318461037BD4680BD80B485B083
:1038300000AF78607B685B6E002B08D17B6801224B
:10384000A3F86A207B680122A3F8682031E00823EE
:10385000FB730823BB737B681B689B685B0EDBB242
:1038600003F007037B737B681B689B685B0FDBB20D
:1038700003F007033B73BB7B3A7B11498A5C02FB75
:1038800003F33A7B0F498A5C93FBF2F39AB27B68AD
:10389000A3F86A20FB7B7A7B09498A5C02FB03F36D
:1038A0007A7B08498A5C93FBF2F39AB27B68A3F8AF
:1038B000682000BF1437BD465DF8047B704700BF29
:1038C000AC420008B44200080EB400B59CB01DAB79
:1038D000029006906FF00041094807910491094950
:1038E00053F8042B05910068019302A900F094F9A4
:1038F000029B00221A701CB05DF804EB03B0704705
:103900000C0000200802FFFF02440346934200D14E
:10391000704703F8011BF9E7014B1868704700BFB7
:103920000C00002070B50D4D0D4C641BA41000263A
:10393000A64209D10B4D0C4C00F066FC641BA41090
:103940000026A64205D170BD55F8043B98470136C4
:10395000EEE755F8043B98470136F2E7F8420008D5
:10396000F8420008F8420008FC420008704770471F
:1039700038B50546002941D051F8043C0C1F002BF6
:10398000B8BFE41800F0E0F81D4A136833B963606B
:1039900014602846BDE8384000F0DCB8A34208D9DE
:1039A000206821188B4201BF19685B6809182160E3
:1039B000EDE71A465B680BB1A342FAD911685018BB
:1039C000A0420BD120680144501883421160E0D11D
:1039D00018685B68536008441060DAE702D90C236A
:1039E0002B60D6E7206821188B4204BF19685B68FA
:1039F000636004BF091821605460CAE738BD00BF86
:103A00008403002070B50F4E0C463168054611B98D
:103A100000F0A6FB30602146284600F0A1FB431CC5
:103A200003D14FF0FF34204670BDC41C24F00304C2
:103A3000A042F8D0211A284600F092FB0130F2D1C2
:103A4000EFE700BF800300202DE9F843CD1C25F0EF
:103A5000030508350C2D38BF0C25002D064601DB6B
:103A6000A94204D90C2333600020BDE8F883DFF8B5
:103A7000D48000F069F8D8F800301C4644BB2946D1
:103A80003046FFF7BFFF431C044658D1D8F800402A
:103A90002746002F43D1002C4BD0236839463046AF
:103AA00004EB030900F05CFB814542D121686D1AEB
:103AB00029463046FFF7A6FF01303AD023682B4451
:103AC0002360D8F800305A6862BBC8F800700FE075
:103AD0002268521B20D40B2A17D96119A3422560F2
:103AE00018BF5960636808BFC8F8001062514B6086
:103AF000304600F02FF804F10B00231D20F00700E2
:103B0000C21A1CBF1B1AA350AFE76268A3420CBFC6
:103B1000C8F800205A60EBE723466468AEE73C46ED
:103B20007F68B6E71A465B68A342FBD10023536067
:103B3000DEE70C233360304600F00CF894E70560B4
:103B4000D6E700BF840300200148FFF70FBF00BF86
:103B50007C0300200148FFF70ABF00BF7C03002060
:103B60002DE9F0478E681F46BE420B6882460C4620
:103B700090462DD8B1F90C2012F4906F26D06569CB
:103B8000096905EB4505A3EB010905EBD5757B1C20
:103B90004B446D109D4238BF1D46530527D529461D
:103BA000FFF752FF064660B321694A4600F0E8FA83
:103BB000A38923F4906343F08003A38126616561A8
:103BC0004E44A5EB09052660A5603E46BE4200D9DD
:103BD0003E4620683246414600F0A8FAA3689B1B87
:103BE000A3602368334423600020BDE8F0872A46A1
:103BF00000F0D4FA06460028E0D121695046FFF7CC
:103C0000B7FE0C23CAF80030A38943F04003A38118
:103C10004FF0FF30E9E700002DE9F04F98468B891F
:103C20001B069DB007460D46144610D50B6973B9A7
:103C30004021FFF709FF2860286130B90C233B6061
:103C40004FF0FF301DB0BDE8F08F40236B610023C3
:103C5000099320238DF82930CDF80C803023DFF82C
:103C60009C818DF82A304FF0010923469A4613F8BB
:103C7000012B0AB1252AF9D1BAEB040B0BD05B4614
:103C8000224629463846FFF76BFF013000F0A78037
:103C9000099A5A4409929AF80030002B00F09F804C
:103CA00000234FF0FF32CDE905230AF1010A049306
:103CB00007938DF853301A935446052214F8011BCC
:103CC0004E48FCF7B5FA049AD8B9D00644BF202371
:103CD0008DF85330110744BF2B238DF853309AF8D9
:103CE00000302A2B15D0079A544600204FF00A0CBA
:103CF000214611F8013B303B092B4BD9B0B107925B
:103D000014E0A0EB080309FA03F313430493A2465B
:103D1000D2E7039B191D1B680391002BBBBF5B42BD
:103D200042F0020207930793B8BF049223782E2B28
:103D30000AD163782A2B32D1039B1A1D1B68039288
:103D400043EAE37302340593DFF8C0A0217803222D
:103D50005046FCF76DFA38B1049BA0EB0A004022F4
:103D6000824013430134049314F8011B24488DF856
:103D700028100622FCF75CFA002836D0214B1BBB2A
:103D8000039B073323F0070308330393099B334452
:103D900009936AE70CFB02320C460120A8E70023D6
:103DA0000134059319464FF00A0C204610F8012BF8
:103DB000303A092A03D9002BC6D00591C4E70CFB81
:103DC000012104460123F0E703AB00932A460E4B82
:103DD00004A93846AFF30080421C0646D6D1AB8911
:103DE0005B063FF52DAF09982CE703AB00932A46FD
:103DF000054B04A9384600F079F8EDE7BC4200080D
:103E0000C642000800000000613B0008C2420008F2
:103E10002DE9F047164698468A680B69DDF8209030
:103E20009342B8BF1346336091F8432007460C46CF
:103E30000AB1013333602368990642BF3368023305
:103E40003360256815F0060506D104F1190AE36808
:103E500032689B1AAB4226DC94F843302268003B60
:103E600018BF012392062BD404F143024146384681
:103E7000C84701301ED02368226903F00603042BD3
:103E800002BFE5683368ED1AA3680CBF25EAE57543
:103E900000259342C4BF9B1AED1800261A34B54280
:103EA0001AD1002008E00123524641463846C8474F
:103EB000013003D14FF0FF30BDE8F0870135C6E790
:103EC000E1185A1C302081F84300224494F8451030
:103ED00082F843100233C7E70123224641463846A1
:103EE000C8470130E6D00136D9E700002DE9FF4789
:103EF0000F7E0C9E782F914680460C469A4601F123
:103F0000430207D8622F0AD8002F00F0D280582F22
:103F100000F0B98004F1420684F842703AE0A7F15B
:103F20006303152BF6D801A151F823F0853F000853
:103F3000993F0008153F0008153F0008153F00088D
:103F4000153F0008993F0008153F0008153F00087D
:103F5000153F0008153F000899400008C33F0008BE
:103F600053400008153F0008153F0008BB400008FB
:103F7000153F0008C33F0008153F0008153F000823
:103F80005B40000833681A1D1B68326004F142066A
:103F900084F8423001239DE033682068191D3160A8
:103FA000060601D51D6803E04506FBD5B3F90050B0
:103FB000002D03DA2D236D4284F8433059480A233B
:103FC00011E021683368080653F8045B02D44906FF
:103FD00048BFADB26F2F5348336014BF0A23082384
:103FE000002184F843106668A660002EA2BF2168F5
:103FF00021F0040121600DB9002E4BD01646B5FB0F
:10400000F3F103FB1157C75D06F8017D2F46BB4254
:104010000D46F4D9082B0BD12368DF0708D5236997
:1040200061689942DEBF302306F8013C06F1FF3695
:10403000921B2261CDF800A04B4603AA21464046C0
:10404000FFF7E6FE01304AD14FF0FF3004B0BDE883
:10405000F087236843F0200323603348782784F8EF
:104060004570236831681F0651F8045B02D45F066F
:1040700048BFADB23160D90744BF43F0200323608D
:104080001DB11023ACE72748E9E7236823F020039C
:104090002360F6E71646BDE7336825686169181D99
:1040A00030602E061B6801D5196002E06806FBD55A
:1040B0001980002323611646BCE733681A1D32605D
:1040C0001E68626800213046FCF7B2F808B1801B18
:1040D000606063682361002384F84330AAE72369A2
:1040E000324649464046D0470130ADD023689B0751
:1040F00013D4E068039B9842B8BF1846A6E7012393
:10410000324649464046D04701309DD00135E368EC
:1041100003995B1AAB42F2DCEBE7002504F11906C8
:10412000F5E700BFCD420008DE420008884210B526
:1041300001EB020402D98442234607D8431EA14260
:1041400008D011F8012B03F8012FF8E702440146CB
:104150008A4200D110BD13F8014D02F8014DF7E776
:1041600038B5064D0023044608462B60FCF790FD49
:10417000431C02D12B6803B1236038BD78030020B3
:104180000A44914200F1FF3300D1704710B511F895
:10419000014B03F8014F9142F9D110BD2DE9F041D7
:1041A000804615460C4621B9BDE8F0411146FFF79F
:1041B0004BBC2AB9FFF7DCFB00242046BDE8F081A8
:1041C00000F01AF88542064602D8B5EB500FF4D835
:1041D00029464046FFF738FC07460028ECD0B54298
:1041E0002A46214628BF3246FFF7CAFF21464046ED
:1041F000FFF7BEFB3C46E0E751F8043C181F002BDC
:10420000BCBF0B58C0187047F8B500BFF8BC08BC5D
:104210009E467047F8B500BFF8BC08BC9E46704784
:10422000747278640D0A0000726376640D0A0000EF
:104230004D657373616765205472616E736D697447
:104240007465640D0A000000464443414E20544505
:10425000535421214D657373616765205265636511
:10426000697665642025730D0A00000000000000D7
:104270000000000001020304060708090000000016
:10428000010203040001020304050607080C1014D0
:1042900018203040010002000400060008000A0057
:1042A0000C0010002000400080000001010101030B
:1042B000070100000804020408010101232D302B2E
:1042C0002000686C4C006566674546470030313217
:1042D000333435363738394142434445460030316E
:1042E00032333435363738396162636465660000CD
:0842F00030BFFF7F0100000058
:0442F80005020008B3
:0442FC00E1010008D4
:104300000024F40010000000010000001000002054
:104310000000000040020020A8020020100300203E
:10432000000000000000000000000000000000008D
:10433000000000000000000000000000000000007D
:10434000000000000000000000000000000000006D
:0C43500000000000000000000000000061
:0400000508000D21C1
:00000001FF
