:020000040800F2
:1000000000800020850A00081D0A00081F0A000859
:10001000210A0008230A0008250A00080000000041
:10002000000000000000000000000000270A000897
:10003000290A0008000000002B0A00082D0A000809
:10004000D50A0008D50A0008D50A0008D50A000814
:10005000D50A0008D50A0008D50A0008D50A000804
:10006000D50A0008D50A0008D50A0008D50A0008F4
:10007000D50A0008D50A0008D50A0008D50A0008E4
:10008000D50A000800000000D50A0008D50A0008BB
:10009000D50A0008D50A0008D50A0008D50A0008C4
:1000A000D50A0008D50A0008D50A0008D50A0008B4
:1000B000D50A0008D50A0008D50A0008D50A0008A4
:1000C000D50A0008D50A0008D50A0008D50A000894
:1000D000D50A0008D50A0008D50A0008D50A000884
:1000E000D50A0008D50A0008D50A0008D50A000874
:1000F000D50A0008D50A0008D50A0008000000004B
:1001000000000000D50A000800000000D50A000821
:10011000D50A000800000000D50A0008D50A00082A
:10012000D50A0008D50A0008D50A0008D50A000833
:10013000D50A00080000000000000000D50A0008F1
:10014000D50A0008D50A00080000000000000000E1
:10015000000000000000000000000000000000009F
:10016000000000000000000000000000D50A0008A8
:10017000D50A000800000000000000000000000098
:1001800000000000D50A0008000000000000000088
:10019000000000000000000000000000000000005F
:1001A0000000000000000000D50A0008D50A000881
:1001B000D50A0008D50A0008D50A0008000000008A
:1001C00000000000D50A0008000000000000000048
:0801D000D50A0008D50A000859
:1001E00010B5054C237833B9044B13B10448AFF371
:1001F00000800123237010BD5C000020000000007F
:10020000BC2B000808B5034B1BB103490348AFF3EF
:10021000008008BD0000000060000020BC2B00082A
:10022000034613F8012B002AFBD1181A0138704736
:1002300001F0FF01102A2BDB10F0070F08D010F897
:10024000013B013A8B422DD010F0070F42B3F6D19B
:10025000F0B441EA012141EA014122F007047FF0B4
:1002600000070023F0E80256083C85EA010586EA0B
:10027000010685FA47F5A3FA87F586FA47F6A5FA47
:1002800087F68EB9EED1F0BC01F0FF0102F0070253
:1002900032B110F8013B013A83EA010313B1F8D1FE
:1002A0000020704701387047002D06BF35460338DF
:1002B000073815F0010F07D1013015F4807F02BF18
:1002C000013015F4C03F0130F0BC0138704700BF69
:1002D00053B94AB9002908BF00281CBF4FF0FF31AD
:1002E0004FF0FF3000F06AB9ADF1080C6DE904CEB3
:1002F00000F006F8DDF804E0DDE9022304B0704701
:100300002DE9F047089D0C46002B4ED194468C45B4
:100310008646B2FA82F262D94AB1C2F12003914014
:1003200020FA03F30CFA02FC194300FA02FE4FEA2A
:100330001C471FFA8CF6B1FBF7F44FEA1E4307FB8C
:10034000141143EA014304FB06F199420AD91CEB5C
:10035000030304F1FF3080F01281994240F20F81D3
:10036000023C6344591A1FFA8EF3B1FBF7F007FB06
:10037000101143EA014300FB06F69E420AD91CEB2A
:10038000030300F1FF3180F0FC809E4240F2F980CF
:10039000634402389B1B40EA044000211DB1D34056
:1003A0000022C5E90032BDE8F0878B4205D90DB1C6
:1003B000C5E9000100210846F5E7B3FA83F10029F9
:1003C00046D1A34202D39042C0F0F080861A64EB7B
:1003D00003030120002DE6D0C5E90063E3E7002A0E
:1003E00040F09080A1EB0C044FEA1C481FFA8CF7F8
:1003F0000121B4FBF8F64FEA1E4308FB164443EA1A
:10040000044307FB06F0984208D91CEB030306F1EE
:10041000FF3402D2984200F2CD8026461C1A1FFA01
:100420008EF3B4FBF8F008FB104443EA044300FBEE
:1004300007F79F4208D91CEB030300F1FF3402D2F7
:100440009F4200F2B0802046DB1B40EA0640A5E751
:10045000C1F120068B4022FA06F71F4320FA06FC62
:1004600004FA01F343EA0C03F44000FA01F8380CF3
:100470004FEA1349B4FBF0FE1FFA87FC00FB1E4451
:1004800049EA04440EFB0CF9A14502FA01F20AD92B
:100490003C190EF1FF3A80F08480A14540F2818042
:1004A000AEF1020E3C44A4EB09041FFA83F9B4FB3D
:1004B000F0F300FB134449EA044403FB0CFCA4459D
:1004C00007D93C1903F1FF3067D2A44565D9023B37
:1004D0003C4443EA0E40A0FB0293A4EB0C049C4274
:1004E000CE469C4651D34ED055B1B8EB0E0364EBCB
:1004F0000C0404FA06F6CB401E43CC40C5E9006468
:10050000002150E7C2F1200320FA03F10CFA02FCAB
:1005100024FA03F394400C434FEA1C4800FA02FE0D
:100520001FFA8CF7B3FBF8F008FB1031230C43EAF9
:10053000014300FB07F1994208D91CEB030300F1CA
:10054000FF362CD299422AD9023863445B1AA4B2EE
:10055000B3FBF8F108FB113344EA034401FB07F352
:10056000A34208D91CEB040401F1FF3613D2A342C5
:1005700011D902396444E41A41EA004139E70446DA
:10058000F0E6084606E7C845AED2B9EB020E63EBCB
:10059000070C0138A8E73146EDE7034699E73046F6
:1005A000D4E7D6467FE7634402384DE70646234644
:1005B00008460FE7023E634430E700BF704700BFC4
:1005C00010B51C4A8CB0106851686B4603C3906824
:1005D000186040F211120023CDE9032309224FF4E1
:1005E0008011CDE906234FF40012CDE9081212481C
:1005F00005936A4603A9CDE90A3300F02DFCB0B992
:100600000D4C0021204600F013FD0028F9D10B49C4
:100610000B4801F07FFE0A48FFF702FE084982B24C
:100620004FF0FF33074801F0C3FC0CB010BD72B6A9
:10063000FEE700BFEA2B0008D4010020D42B0008FD
:10064000780000204001002000B59BB010484021F8
:1006500000F0F6FC0028F9D00D486B4603AA4021B3
:1006600000F062FC08B172B6FEE76A4609490DA8BF
:1006700001F0FCFD0DA8FFF7D3FD4FF0FF3382B270
:100680000DA9054801F094FC1BB05DF804FB00BF08
:10069000D4010020F72B00084001002000B595B0E0
:1006A0003822002106A801F001FE1422002101A831
:1006B00001F0FCFD4FF4007000F09CFD40224FF46F
:1006C000807102230520CDE909125522CDE90D33B1
:1006D000CDE90F02CDE91133069306A80823139341
:1006E00000F0E0FD08B172B6FEE7CDE903000F228D
:1006F00003230590012101A8CDE9012301F014F89D
:1007000008B172B6FEE715B05DF804FB80B588B09D
:1007100000F008FAFFF7C2FF1422002102A801F03E
:10072000C5FD544B5448DA6C544C42F00102DA6473
:10073000DA6C02F001020092009ADA6C42F00202D6
:10074000DA64DB6C03F00203002201934FF4807142
:100750000025019B012600F047FD4FF4807302A99C
:100760004548CDE90236CDE9045500F073FC444B11
:1007700025614FF4E1380C272046C4E90038C4E96C
:100780000255C4E90575C4E90755C4E9095501F0E6
:10079000BFFC014608B172B6FEE7204601F025FD18
:1007A000014608B172B6FEE7204601F03EFD08B1F1
:1007B00072B6FEE7204601F0FDFC08B172B6FEE716
:1007C000304C314BA074C4E900304FF44072032325
:1007D0004FF00209C4E902230E23C4E90739C4E932
:1007E0000B3963630423C4E90E302046C4E905963F
:1007F000C4E90996268200F00FFA08B172B6FEE746
:10080000224D234BA862C5E90200C5E90407C5E9EA
:100810000600C5E908002846C5E9003801F078FC63
:10082000014608B172B6FEE7284601F0DEFC01463B
:1008300008B172B6FEE7284601F0F7FC08B172B6BF
:10084000FEE7284601F0B6FC08B172B6FEE70F23BA
:1008500002A9CDE90200069020460793CDE904964F
:1008600000F0BCFA204600F0E1FAFFF7A9FEFFF71E
:10087000EBFEFEE70010024000040048AC00002040
:1008800000440040D40100200064004040010020EA
:100890000038014072B6FEE70A4B1A6E42F00102C0
:1008A0001A661A6E82B002F001020092009A9A6DE6
:1008B00042F080529A659B6D03F080530193019B37
:1008C00002B070470010024010B598B004461422E0
:1008D000002102A801F0EAFC4422002107A801F04F
:1008E000E5FC2268194B9A422DD14FF480530793AF
:1008F00007A84FF00073139301F02EF808B1FFF72B
:10090000C9FF134B9A6D42F000729A659A6D02F01E
:1009100000720092009ADA6C42F00102DA64DB6C39
:1009200003F001030193019B4FF4C0520223CDE970
:1009300002230023CDE9043302A909234FF090409C
:10094000069300F087FB18B010BD00BF00640040A4
:100950000010024010B59AB004461422002104A8E9
:1009600001F0A4FC4422002109A801F09FFC2368A7
:10097000274A93422BD1012309A8099300F0ECFFE9
:1009800008B1FFF787FF234B1A6E42F480421A66C4
:100990001A6E02F480420092009ADA6C42F0010270
:1009A000DA64DB6C03F001030193019B4FF4C06335
:1009B000049302220023CDE90523079304A907230A
:1009C0004FF09040089300F045FB1AB010BD124A5A
:1009D0009342FAD1022309A8099300F0BDFF08B1A0
:1009E000FFF758FF0B4B9A6D42F400329A659A6DEF
:1009F00002F400320292029ADA6C42F00102DA64E6
:100A0000DB6C03F001030393039B0C23D0E700BFCF
:100A1000003801400010024000440040FEE7FEE7BD
:100A2000FEE7FEE7FEE770477047704700F08AB8C0
:100A30000B4A116810B5034609B90A4911601068DC
:100A400009490A4C0344091B8B4206D901F036FCC4
:100A50000C2303604FF0FF3010BD1360FCE700BFB4
:100A600038020020880300200080002000040000DD
:100A7000034AD2F8883043F47003C2F888307047D4
:100A800000ED00E00D488546FFF7F2FF0C480D49E8
:100A90000D4A002302E0D458C4500433C4188C42D9
:100AA000F9D30A4A0A4C002301E013600432A2423F
:100AB000FBD301F009FCFFF729FEFEE700800020D0
:100AC000000000205C000020A42C00085C00002036
:100AD00088030020FEE7000038B50F4B1A68054672
:100AE0000AB9012038BD4FF47A73B3FBF2F30B4A15
:100AF0001068B0FBF3F000F07BF804460028F0D15A
:100B00000F2DEED8024629464FF0FF3000F03EF898
:100B1000034B20461D60E5E7040000200000002094
:100B20000800002010B5032000F01EF80020FFF799
:100B3000D3FF044618B9FFF7AFFE204610BD0124CD
:100B4000FBE70000034A0449136809680B4413607B
:100B5000704700BF3C02002004000020014B1868D1
:100B6000704700BF3C0200200749CA6822F4E062D7
:100B70000302120403F4E063120C134343F0BF6357
:100B800043F40033CB60704700ED00E0164B30B506
:100B9000DC68C4F30224C4F10703251D042B28BF1D
:100BA0000423062D4FF0FF358CBF033C002405FACB
:100BB00003F321EA0303A54022EA0502A34000282B
:100BC00043EA0203ACBF00F16040084A4FEA031356
:100BD000B8BF00F00F00DBB2AABF00F561401354AC
:100BE00080F8003330BD00BF00ED00E014ED00E000
:100BF0000138B0F1807F0BD24FF0E023054A5861F5
:100C0000F02182F823100020072298611A617047B2
:100C10000120704700ED00E038B50446002800F0E0
:100C2000BA8090F85C3003F0FF021BB980F85D20B9
:100C3000FFF74AFE2268936923F010039361FFF7E0
:100C40008DFF054623689A69110700F197809A691C
:100C500042F001029A61FFF781FF054623689A6915
:100C6000D20740F19A809A6942F002029A61574A8B
:100C7000934204BF6168C2F80011227C012A9A697C
:100C80000CBF22F0400242F040029A61627C012ACD
:100C90009A690CBF42F4804222F480429A61A27C9D
:100CA000012A9A690CBF22F4805242F480529A6160
:100CB0009A69A06822F4407202439A619A6922F00C
:100CC000A4029A611A6922F010021A61E268012AEC
:100CD0006AD19A6942F004029A61A269511EE269DE
:100CE000013A120242EA4162216A01390A4361690A
:100CF000013942EA0142B0F5407FDA610ED1E26A81
:100D0000511E226B013A120142EA0122A16A013905
:100D10000A43616A013942EA0142DA60D3F8C0202D
:100D2000E16B2B480A43C3F8C020D3F88020616BE5
:100D3000206422F4F81242EA0142C3F88020254AD6
:100D40006264D3F88020A16B22F0706242EA0162F3
:100D5000C3F88020204BA364D833E364D8332365E1
:100D6000183363654FF45472002101F09FFA00209C
:100D700001232066A06584F85C300DE0FFF7EEFEED
:100D8000401B0A287FF65EAF236E43F00103236603
:100D9000032384F85C30012038BDFFF7DFFE401BE1
:100DA0000A287FF65BAFEFE7002A96D0022A09D027
:100DB000996941F0800199611969032A41F0100194
:100DC00019618AD19A6942F0200285E700640040E7
:100DD00000A4004070A40040B0A4004070B590F89A
:100DE0005C30013B012B1BD88B684D69D1E9036254
:100DF000D1E900149B0749B943EAC663016C2B4350
:100E000043EA024341F82430002070BD416C01EBFD
:100E1000C40042EA46722B4341F834204360F3E7B2
:100E2000036E43F0020303660120EEE790F85C30A6
:100E3000012B0BD10268022380F85C30936923F008
:100E4000010393610023036618467047036E43F065
:100E500004030366012070472DE9F04390F85C30ED
:100E6000022B91465AD10668D6F8C44014F40014F7
:100E700005D0036E43F400730366012032E0D1E92C
:100E80000032D6F8C450D1F810C08F68C5F30145C0
:100E900052BB47EA0C0E4EEA834CD1E906733B4342
:100EA0004F69D0F854803B430F6A43EA0763CF6829
:100EB00043EA074348276F4307EB080E47F808C08B
:100EC000184FCEF804304A460EF1080ECB68FB5C92
:100ED0009C4202F104020ED30123AB40C6F8CC3091
:100EE00083650020BDE8F08343EA0C0C4CEA070C54
:100EF0004CF0804CD1E712F8023C12F801CC1B04F4
:100F000043EA0C6312F804CC43EA0C0312F803CC56
:100F100043EA0C234EF804300434D7E7036E43F061
:100F20000803A9E7252C0008F0B590F85C40022CD6
:100F300077D14029046856D1D4F890502D0705D1B7
:100F4000036E43F4807303660120F0BDD4F8905023
:100F5000EF01C5F3006648BFD4F88060D4F8905024
:100F6000846C48BFC6F34026C5F3012535444826A6
:100F700006FB0544276807F0804757602668002F66
:100F800047D1C6F38A4616602668DFF8A0C006F08F
:100F900000569660266806F000461661A688D6615F
:100FA000E68806F00F06D660666806F4801656617D
:100FB000666806F400169661E67906F07F0616620A
:100FC0006668F60F566207340026D7681CF807706B
:100FD000B74221D8036840290CBFC3F89450C3F826
:100FE0009C500020B1E7D4F898502E07A8D0D4F830
:100FF0009850C5F30066ED0148BFD4F88060D4F87E
:101000009850C46C48BFC6F30026C5F3012535448B
:10101000ADE726F06046B6E714F8017F9F5501362C
:10102000D3E7036E43F008038DE700BF252C0008CB
:101030000368D3F8C8300B4214BF0120002070476A
:10104000036840290CBFD3F89000D3F8980000F053
:101050000F0070472DE9F74FDFF888915F4C0023B0
:101060000A6832FA03F502D103B0BDE8F08F01251A
:1010700005FA03F818EA020200F0A4804E6803277C
:1010800006F003054FEA430E07FA0EFC6F1E012F10
:101090006FEA0C0C34D8876807EA0C0ACF6807FAA5
:1010A0000EF747EA0A078760476827EA0808C6F389
:1010B00000179F4047EA08074760C76807EA0C081F
:1010C0008F6807FA0EF747EA0807022DC76019D1A3
:1010D0004FEAD30800EB880803F0070AD8F820701D
:1010E0004FEA8A0A4FF00F0B0BFA0AFB27EA0B0BA9
:1010F0000F6907FA0AF747EA0B07C8F8207001E002
:10110000032DDAD1076805FA0EF507EA0C073D430F
:1011100016F4403F056055D0D9F8605045F0010500
:10112000C9F86050D9F8605023F0030707F18047F1
:1011300005F0010507F58037019503F0030C019DCB
:10114000BD684FEA8C0C4FF00F0E0EFA0CFEB0F19A
:10115000904F25EA0E0E37D0214DA84236D005F526
:101160008065A84234D005F58065A84232D005F5E7
:101170008065A84230D005F58065A84214BF0625D9
:10118000052505FA0CF545EA0E05BD60A568D743AF
:1011900016F4801F0CBF3D401543A560E56816F4AA
:1011A000001F0CBF3D401543E560656816F4003F25
:1011B0000CBF3D40154365602568F60354BF3D40B4
:1011C0001543256001334BE70025DAE70125D8E711
:1011D0000225D6E70325D4E70425D2E70004014021
:1011E00000040048001002400AB18161704781622A
:1011F00070470000284B1A6818BB02F4C062B2F5B1
:10120000806FD3F8802022F48072C3F8802040D110
:101210001A6822F4C06242F400721A601F4A12680F
:1012200032214A431E49B2FBF1F2013259694905A4
:1012300000D522B95B6958052BD503207047013AC8
:10124000F4E7B0F5007F1FD102F4C062B2F5806F01
:10125000D3F8802042F48072C3F8802019D11A6834
:1012600022F4C06242F400721A600C4A1268322101
:101270004A430B49B2FBF1F2013259694905D9D50C
:10128000002AD7D0013AF8E722F4C06242F4806223
:101290001A600020704700BF00700040000000206E
:1012A00040420F002DE9F341044618B9012002B075
:1012B000BDE8F0810368D90714D423689A0758D48D
:1012C0002368190700F1A18023685A0700F1C8803C
:1012D00023689A0600F12F81E369002B40F05C81BE
:1012E0000020E4E79F4DAB68EA6803F00C030C2B89
:1012F0000AD102F00303032B08D12B689B03DCD532
:101300006368002BD9D1D1E7082BF5E76368B3F503
:10131000803F10D12B6843F480332B60FFF71EFC15
:1013200006462B689F03C8D4FFF718FC801B64286F
:10133000F7D90320BBE7B3F5A02F04D12B6843F402
:1013400080232B60E6E72A6822F480322A602A682C
:1013500022F480222A60002BE0D1FFF7FFFB064633
:101360002B689903A9D5FFF7F9FB801B6428F7D9EF
:10137000DFE77C4DAB68EA6803F00C030C2B17D158
:1013800002F00303022B15D12B685A0502D5E3683E
:10139000002B8BD06B68226923F0FE4343EA026383
:1013A0006B60714B1868FFF797FB002888D07DE7CA
:1013B000042BE8E7E368BBB12B6843F480732B6030
:1013C000FFF7CCFB06462B685B0507D56B682269E7
:1013D00023F0FE4343EA02636B6071E7FFF7BEFB55
:1013E000801B0228EFD9A4E72B6823F480732B60BD
:1013F000FFF7B4FB06462B685F057FF561AFFFF78B
:10140000ADFB801B0228F6D993E76369554D9BB16C
:10141000D5F8943043F00103C5F89430FFF79EFBF4
:101420000646D5F894309B073FF54EAFFFF796FB85
:10143000801B0228F5D97CE7D5F8943023F001030E
:10144000C5F89430FFF78AFB0646D5F894309F071D
:101450007FF53AAFFFF782FB801B0228F5D968E7DA
:10146000404DAB6DD80027D4AB6D43F08053AB65D6
:10147000AB6D03F080530193019B01273B4E336812
:10148000D9051BD5A368012B29D1D5F8903043F09D
:101490000103C5F89030FFF761FB41F2883806463A
:1014A000D5F890309B0740D5002F3FF411AFAB6DBE
:1014B00023F08053AB650BE70027DFE7336843F485
:1014C00080733360FFF74AFB80463368DA05D9D46E
:1014D000FFF744FBA0EB08000228F6D929E7052B0B
:1014E00006D1D5F8903043F00403C5F89030CCE72E
:1014F000D5F8902022F00102C5F89020D5F8902070
:1015000022F00402C5F89020002BC4D1FFF726FB7F
:1015100041F288380646D5F890309907C4D5FFF7D0
:101520001DFB801B4045F6D903E7FFF717FB801B27
:101530004045B5D9FDE6A3690A4DCBB1D5F8983041
:1015400043F00103C5F89830FFF708FB0646D5F8CD
:1015500098309B073FF5C0AEFFF700FB801B0228C9
:10156000F5D9E6E6001002400800002000700040B7
:10157000D5F8983023F00103C5F89830FFF7EEFA5C
:101580000646D5F898309F077FF5A6AEFFF7E6FA36
:10159000801B0228F5D9CCE6454DAA6802F00C0262
:1015A0000C2A51D0022B2B6823F080732B603AD188
:1015B000FFF7D4FA06462B6899012ED4EA683D4B12
:1015C0001340226A1343A26A43EA0223E26A43EA0F
:1015D000C263626A013A43EA0213226B5208013A7B
:1015E00043EA4253626B5208013A43EA4263EB60BA
:1015F0002B6843F080732B60EB6843F08073EB60E3
:10160000FFF7ACFA04462B689A013FF569AEFFF785
:10161000A5FA001B0228F6D98BE6FFF79FFA801B7C
:101620000228C8D985E6FFF799FA04462B689B0182
:1016300004D4EA68204B1340EB6051E6FFF78EFAC2
:10164000001B0228F2D974E6012B3FF42FAEEB68A1
:10165000226A03F0030191427FF428AE616A03F02D
:10166000F0020139B2EB011F7FF420AEA16A03F44E
:10167000FE42B2EB012F7FF419AEE16A03F078422B
:10168000B2EBC16F7FF412AE226B520803F4C001BB
:10169000013AB1EB425F7FF409AE626B5208013A46
:1016A00003F0C063B3EB426F14BF01200020FEE5DE
:1016B000001002400C809F01FCFFEEFE174B9A6861
:1016C00002F00C02042A23D09A6802F00C02082AC5
:1016D00020D09A6802F00C020C2A1DD1D968DA6871
:1016E000D868DB6801F00301C3F341630329C2F347
:1016F0000312C0F3062003F101030CBF0849094996
:101700005B000132B1FBF2F25043B0FBF3F07047E3
:10171000044870470248704700207047001002409C
:1017200000127A000024F4002DE9F8430E46054625
:1017300010B90120BDE8F8836D4A136803F00F0368
:101740008B4245D3296811F001084CD12A689107D2
:1017500040F1A780674B12F0040F1EBF996841F457
:10176000E0619960120741BF9A6822F47C5242F40A
:10177000E0629A609A68A96822F0F0020A439A60CF
:101780005B4C236803F00F03B34200F293802A6896
:10179000584C12F0040F40F0A380130706D5A3683D
:1017A0002A6923F4605343EAC203A360FFF786FF6C
:1017B000A368514AC3F30313D35C03F01F03D8405B
:1017C0004E4B18604E4B1868BDE8F843FFF784B9DC
:1017D000136823F00F030B431360136803F00F0328
:1017E0008B42A6D1AEE76F68424C032F236849D1E4
:1017F0009B019ED5E368E26803F00303032BE368D3
:101800000CBF40484048C2F30312C3F30623013221
:10181000B0FBF2F25343E268C2F34162013252007C
:10182000B3FBF2F3394A93421AD84FF00008A36889
:1018300023F003033B43A360FFF790F941F288399B
:101840000746A3686A6803F00C03B3EB820F3FF40A
:101850007DAFFFF783F9C01B4845F2D9032069E744
:10186000A36813F0F00F04D08807DED5AB68002B17
:10187000DBD1A36823F0F00343F08003A3604FF0B3
:101880008008D4E7022F09D113F4003F3FF451AF91
:10189000FFF714FF1D4B9842C7D9EAE713F4806F96
:1018A000F4E7B8F1800F01BF124A936823F0F00308
:1018B000936065E7236823F00F0333432360FFF74A
:1018C0004DF941F288380746236803F00F03B3420D
:1018D0003FF45DAFFFF742F9C01B4045F4D9BDE7C7
:1018E000A368E96823F4E0630B43A36055E700BFF6
:1018F0000020024000100240152C000800000020CB
:101900000800002000127A000024F40000B4C4048F
:10191000054B064A9B68C3F30223D35C044A106854
:1019200003F01F03D8407047001002400D2C000840
:1019300000000020054B064A9B68C3F3C223D35C1A
:10194000044A106803F01F03D8407047001002409B
:101950000D2C0008000000202DE9F341044600682A
:1019600010F4002056D0984DAB6DD80044D4AB6D28
:1019700043F08053AB65AB6D03F080530193019B43
:101980000126924F3B6843F480733B60FFF7E6F813
:1019900080463B68D90531D5D5F89020236C12F4E8
:1019A00040721FD09A4211D0D5F89030D5F89020CF
:1019B00042F48032C5F89020D5F8902023F440738B
:1019C00022F48032C5F89020C5F89030DA0709D5A6
:1019D000FFF7C4F841F288380746D5F890309B07E6
:1019E00040F1EB80D5F89030226C23F44073134320
:1019F000C5F89030002008E00026C2E7FFF7AEF8F7
:101A0000A0EB08000228C4D903201EB1AB6D23F05F
:101A10008053AB652368DE0708D56B496568D1F84C
:101A2000882022F003022A43C1F888209D0708D5A8
:101A30006549A568D1F8882022F00C022A43C1F834
:101A40008820590708D56049E568D1F8882022F038
:101A500030022A43C1F888201A0708D55A49256957
:101A6000D1F8882022F0C0022A43C1F888209F06BE
:101A700008D555496569D1F8882022F440622A4387
:101A8000C1F888205E0608D54F49A569D1F888209D
:101A900022F440522A43C1F888201D0608D54A493D
:101AA000E569D1F8882022F440422A43C1F8882011
:101AB000D90508D54449256AD1F8882022F4403256
:101AC0002A43C1F888209A0508D53F49656AD1F8AC
:101AD000882022F440222A43C1F888205F050FD5D0
:101AE0003949A56AD1F8882022F440122A43C1F866
:101AF0008820B5F5801F02BFCA6842F48012CA6010
:101B00001E050FD53049E56AD1F8882022F440023D
:101B10002A43C1F88820B5F5800F02BFCA6842F495
:101B20008012CA60DD040FD52749256BD1F88820C3
:101B300022F040722A43C1F88820B5F1807F02BFAD
:101B4000CA6842F48012CA6099040FD51E49656BB9
:101B5000D1F8882022F040622A43C1F88820B5F1EC
:101B6000006F02BFCA6842F48012CA605A040FD5DF
:101B70001549A56BD1F8882022F040622A43C1F8AC
:101B80008820B5F1006F02BFCA6842F48012CA60B3
:101B90001B040FD50C4AE16BD2F8883023F0405378
:101BA0000B43B1F1805FC2F8883003D1D36843F4AE
:101BB0008033D36002B0BDE8F081FEF7CFFFC01BD9
:101BC00040457FF60AAF1FE700100240007000405A
:101BD00010B5026852E8003F23F4907342E80031E8
:101BE00002680029F5D10F4C02F1080353E8003FC9
:101BF000234002F1080C4CE800310029F4D1C36EF7
:101C0000012B07D152E8003F23F0100342E80031D6
:101C10000029F7D12023C0F88C300023C366436726
:101C200010BD00BFFEFFFFEF38B504460368216911
:101C3000A2681D68C0690A4361690A438449024376
:101C400029400A431A605A68E16822F440520A4364
:101C50005A60804AA16993421CBF226A11439A6864
:101C600022F06E4222F430620A439A60DA6A616AB4
:101C700022F00F020A43DA62774A934213D1774B7C
:101C8000D3F8883003F00303022B00F0DB80032B32
:101C90001ED0012B40F0B380B0F5004F40F0A38080
:101CA000FFF70CFDB0E06E4A934218D16B4BD3F8AE
:101CB000883003F00C03082B00F0C48006D8002BFA
:101CC00000F09480042BE7D0012040E00C2BFBD1E6
:101CD000B0F5004F00F09A804FF4004073E0614A85
:101CE00093420ED15D4BD3F8883003F03003202BA4
:101CF00000F0A88003D8002B78D0102BE3E7302B1E
:101D0000E5E7594A93420ED1544BD3F8883003F09B
:101D1000C003802B00F0968003D8002B66D0402BA8
:101D2000D1E7C02BD3E74B4A9342CDD14B4BD3F8ED
:101D3000883003F44063B3F5006F18D00ED89BB120
:101D4000B3F5806FC0D1FFF7B9FC88B900204FF020
:101D50000113A3660023C4E91D3338BDB3F5406FFA
:101D6000B2D14FF4004003E0FFF7D2FDEDE73F486A
:101D700065683F4B626A05EB450133F81220B0FB02
:101D8000F2F39942A0D8B3EB053F9DD80023194642
:101D9000FEF79EFA090241EA10616B080002C018C2
:101DA0002A464FF0000341F10001FEF791FA314B52
:101DB000A0F540729A4287D82368D860C6E7FFF73B
:101DC000A7FD0028C2D06368616A294A32F8112051
:101DD000B0FBF2F000EB5300B0FBF3F04FF6EF7303
:101DE000A0F11002E6E7FFF769FCEAE7B0F5004F63
:101DF000E5D1FFF78DFD07E0FFF79CFDE1E7B0F5CA
:101E0000004FF9D1FFF796FD00289FD06168184B6D
:101E1000626A33F81220B0FBF2F24B0803EB420384
:101E20004FF6EF72B3FBF1F3A3F1100191423FF6CD
:101E30004BAF23F00F02216892B2C3F34203134366
:101E4000CB6083E7B0F5004F0848BCD1DEE700BFA8
:101E5000F369FFCF008000400038014000100240CD
:101E60000044004000480040004C00400024F400C2
:101E7000362C0008FFFC0F00836A1A0710B506D540
:101E80000168846B4A6822F4004222434A60DC07FE
:101E900006D50168C46A4A6822F4003222434A60C7
:101EA000990706D50168046B4A6822F48032224300
:101EB0004A605A0706D50168446B4A6822F48022BA
:101EC00022434A60DC0606D50168C46B8A6822F4A6
:101ED000805222438A60990606D50168046C8A689C
:101EE00022F4005222438A605A060FD50168446CDE
:101EF0004A6822F480122243B4F5801F4A6005D15B
:101F00004A68846C22F4C00222434A601B0606D54C
:101F10000268C16C536823F400230B43536010BD67
:101F20002DE9F843DDF8209004460D461746984603
:101F30002268D36935EA03030CBF01230023BB42A7
:101F400001D0002022E0B9F1FF3FF2D0FEF706FEFB
:101F5000A0EB0800484529D8B9F1000F26D0216828
:101F60000B685A07E4D5802DE2D0402DE0D0CE6931
:101F700016F008060CD0082520460D62FFF728FE53
:101F80000023C4F8905084F884300120BDE8F88321
:101F9000CB691B05CCD54FF400630B622046FFF7DD
:101FA00017FE2023C4F8903084F884600320EDE706
:101FB0002DE9F7439846D0F88830202B04460E468A
:101FC000174646D1002946D0002A44D021230025B7
:101FD000C0F89050C0F88830FEF7C0FDA368A4F8A0
:101FE0005470B3F5805F8146A4F8567003D123691D
:101FF0000BB935461E46B4F85620CDF8008092B293
:102000004B4642B940212046FFF78AFF202348B9BA
:10201000C4F8883009E0002280212046FFF780FFC5
:1020200030B12023C4F88830032003B0BDE8F0832A
:1020300022685EB935F8023BC3F308039362B4F833
:102040005620013A92B2A4F85620D4E716F8013B84
:10205000F4E70220E9E70120E7E773B5044600262C
:10206000C0F89060FEF77AFD23681B681A070546E2
:102070001CD56FF07E430093324603464FF40011A7
:102080002046FFF74DFF88B1226852E8003F23F059
:10209000800342E800310029F6D12023C4F88830BB
:1020A0000320002384F8843002B070BD23681B68CD
:1020B0005B0724D56FF07E43009300222B464FF43C
:1020C00080012046FFF72CFFC8B1226852E8003F8C
:1020D00023F4907342E8003122680029F5D102F11F
:1020E000080353E8003F23F0010302F1080040E831
:1020F00000310029F3D12023C4F88C30D0E720230D
:102100000020C4F88830C4F88C30E0662067C8E747
:1021100010B5044650B3D0F888301BB980F884302D
:10212000FEF718FC22682423C4F88830136823F0D3
:1021300001031360A36A13B12046FFF79DFE2046FA
:10214000FFF772FD012811D023685A6822F49042EB
:102150005A609A6822F02A029A601A6842F00102D4
:1021600020461A60BDE81040FFF777BF012010BD80
:10217000436E30B52BB90123A0F86A30A0F868305F
:1021800030BD0368094D9A689968094C490FC2F33C
:1021900042626B5C615CDB00B3FBF1F3A0F86A3078
:1021A000AB5CA25CDB00B3FBF2F3E7E7562C000864
:1021B0004E2C000890F88430012B14D002682423A0
:1021C000C0F888301168136823F00103136021F010
:1021D00000510023436611602022C0F8882080F857
:1021E0008430184670470220704770B590F88430EC
:1021F000012B044617D005682423C0F888302E68C8
:102200002B6823F001032B60AB6823F06043194374
:10221000A960FFF7ADFF20232E60C0F888300020B2
:1022200084F8840070BD0220FCE770B590F884301B
:10223000012B044617D005682423C0F888302E6887
:102240002B6823F001032B60AB6823F06063194314
:10225000A960FFF78DFF20232E60C0F88830002092
:1022600084F8840070BD0220FCE700000EB400B5C5
:102270009CB01DAB029006906FF000410948079199
:102280000491094953F8042B05910068019302A9B0
:1022900000F09CF9029B00221A701CB05DF804EB60
:1022A00003B070470C0000200802FFFF0244034601
:1022B000934200D1704703F8011BF9E7014B1868FE
:1022C000704700BF0C00002070B50D4D0D4C641B15
:1022D000A4100026A64209D10B4D0C4C00F06EFC58
:1022E000641BA4100026A64205D170BD55F8043B1E
:1022F00098470136EEE755F8043B98470136F2E778
:102300009C2C00089C2C00089C2C0008A02C000889
:1023100070477047034611F8012B03F8012B002A80
:10232000F9D1704738B50546002941D051F8043C31
:102330000C1F002BB8BFE41800F0E0F81D4A13682A
:1023400033B9636014602846BDE8384000F0DCB85B
:10235000A34208D9206821188B4201BF19685B6825
:1023600009182160EDE71A465B680BB1A342FAD960
:1023700011685018A0420BD12068014450188342C4
:102380001160E0D118685B68536008441060DAE7B8
:1023900002D90C232B60D6E7206821188B4204BF9A
:1023A00019685B68636004BF091821605460CAE75C
:1023B00038BD00BF8403002070B50F4E0C46316855
:1023C000054611B900F0A6FB30602146284600F012
:1023D000A1FB431C03D14FF0FF34204670BDC41C49
:1023E00024F00304A042F8D0211A284600F092FB02
:1023F0000130F2D1EFE700BF800300202DE9F84360
:10240000CD1C25F0030508350C2D38BF0C25002DFB
:10241000064601DBA94204D90C2333600020BDE845
:10242000F883DFF8D48000F069F8D8F800301C4653
:1024300044BB29463046FFF7BFFF431C044658D132
:10244000D8F800402746002F43D1002C4BD02368FA
:102450003946304604EB030900F05CFB814542D16C
:1024600021686D1A29463046FFF7A6FF01303AD0A1
:1024700023682B442360D8F800305A6862BBC8F840
:1024800000700FE02268521B20D40B2A17D9611963
:10249000A342256018BF5960636808BFC8F80010E0
:1024A00062514B60304600F02FF804F10B00231D01
:1024B00020F00700C21A1CBF1B1AA350AFE76268C6
:1024C000A3420CBFC8F800205A60EBE723466468BB
:1024D000AEE73C467F68B6E71A465B68A342FBD18D
:1024E00000235360DEE70C233360304600F00CF825
:1024F00094E70560D6E700BF840300200148FFF79A
:1025000007BF00BF7C0300200148FFF702BF00BFE8
:102510007C0300202DE9F0478E681F46BE420B6801
:1025200082460C4690462DD8B1F90C2012F4906FDB
:1025300026D06569096905EB4505A3EB010905EBA3
:10254000D5757B1C4B446D109D4238BF1D4653050D
:1025500027D52946FFF752FF064660B321694A4650
:1025600000F0E8FAA38923F4906343F08003A38189
:10257000266165614E44A5EB09052660A5603E46CF
:10258000BE4200D93E4620683246414600F0A8FAD5
:10259000A3689B1BA3602368334423600020BDE82D
:1025A000F0872A4600F0D4FA06460028E0D12169D7
:1025B0005046FFF7B7FE0C23CAF80030A38943F05A
:1025C0004003A3814FF0FF30E9E700002DE9F04F11
:1025D00098468B891B069DB007460D46144610D5BC
:1025E0000B6973B94021FFF709FF2860286130B9F2
:1025F0000C233B604FF0FF301DB0BDE8F08F40234F
:102600006B610023099320238DF82930CDF80C80CD
:102610003023DFF89C818DF82A304FF001092346E2
:102620009A4613F8012B0AB1252AF9D1BAEB040B0B
:102630000BD05B46224629463846FFF76BFF013038
:1026400000F0A780099A5A4409929AF80030002BAA
:1026500000F09F8000234FF0FF32CDE905230AF1FF
:10266000010A049307938DF853301A9354460522B8
:1026700014F8011B4E48FDF7DBFD049AD8B9D006CB
:1026800044BF20238DF85330110744BF2B238DF80E
:1026900053309AF800302A2B15D0079A5446002060
:1026A0004FF00A0C214611F8013B303B092B4BD966
:1026B000B0B1079214E0A0EB080309FA03F3134347
:1026C0000493A246D2E7039B191D1B680391002BBC
:1026D000BBBF5B4242F0020207930793B8BF04926C
:1026E00023782E2B0AD163782A2B32D1039B1A1D13
:1026F0001B68039243EAE37302340593DFF8C0A03A
:10270000217803225046FDF793FD38B1049BA0EBDE
:102710000A004022824013430134049314F8011B41
:1027200024488DF828100622FDF782FD002836D0B7
:10273000214B1BBB039B073323F007030833039391
:10274000099B334409936AE70CFB02320C460120D3
:10275000A8E700230134059319464FF00A0C2046E0
:1027600010F8012B303A092A03D9002BC6D0059165
:10277000C4E70CFB012104460123F0E703AB0093FF
:102780002A460E4B04A93846AFF30080421C064689
:10279000D6D1AB895B063FF52DAF09982CE703AB8B
:1027A00000932A46054B04A9384600F079F8EDE776
:1027B0005E2C0008682C00080000000015250008A9
:1027C000642C00082DE9F047164698468A680B6984
:1027D000DDF820909342B8BF1346336091F8432050
:1027E00007460C460AB1013333602368990642BF9D
:1027F000336802333360256815F0060506D104F10D
:10280000190AE36832689B1AAB4226DC94F843301D
:102810002268003B18BF012392062BD404F1430227
:1028200041463846C84701301ED02368226903F06C
:102830000603042B02BFE5683368ED1AA3680CBFDA
:1028400025EAE57500259342C4BF9B1AED180026C2
:102850001A34B5421AD1002008E0012352464146FD
:102860003846C847013003D14FF0FF30BDE8F0874C
:102870000135C6E7E1185A1C302081F84300224494
:1028800094F8451082F843100233C7E7012322462B
:1028900041463846C8470130E6D00136D9E7000046
:1028A0002DE9FF470F7E0C9E782F914680460C46FF
:1028B0009A4601F1430207D8622F0AD8002F00F090
:1028C000D280582F00F0B98004F1420684F842709B
:1028D0003AE0A7F16303152BF6D801A151F823F0D4
:1028E000392900084D290008C9280008C92800080E
:1028F000C9280008C92800084D290008C92800086F
:10290000C9280008C9280008C92800084D2A00085D
:1029100077290008072A0008C9280008C9280008E4
:102920006F2A0008C928000877290008C92800086C
:10293000C92800080F2A000833681A1D1B68326076
:1029400004F1420684F8423001239DE03368206898
:10295000191D3160060601D51D6803E04506FBD54B
:10296000B3F90050002D03DA2D236D4284F8433073
:1029700059480A2311E021683368080653F8045BBC
:1029800002D4490648BFADB26F2F5348336014BF1D
:102990000A230823002184F843106668A660002EED
:1029A000A2BF216821F0040121600DB9002E4BD097
:1029B0001646B5FBF3F103FB1157C75D06F8017D21
:1029C0002F46BB420D46F4D9082B0BD12368DF07F5
:1029D00008D5236961689942DEBF302306F8013CBF
:1029E00006F1FF36921B2261CDF800A04B4603AAE8
:1029F00021464046FFF7E6FE01304AD14FF0FF3056
:102A000004B0BDE8F087236843F020032360334817
:102A1000782784F84570236831681F0651F8045BF5
:102A200002D45F0648BFADB23160D90744BF43F05E
:102A3000200323601DB11023ACE72748E9E7236892
:102A400023F020032360F6E71646BDE733682568C8
:102A50006169181D30602E061B6801D5196002E0FF
:102A60006806FBD51980002323611646BCE733684E
:102A70001A1D32601E68626800213046FDF7D8FBDF
:102A800008B1801B606063682361002384F84330D1
:102A9000AAE72369324649464046D0470130ADD0C7
:102AA00023689B0713D4E068039B9842B8BF18467D
:102AB000A6E70123324649464046D04701309DD023
:102AC0000135E36803995B1AAB42F2DCEBE70025C2
:102AD00004F11906F5E700BF6F2C0008802C0008F0
:102AE000884210B501EB020402D98442234607D87C
:102AF000431EA14208D011F8012B03F8012FF8E77B
:102B0000024401468A4200D110BD13F8014D02F87B
:102B1000014DF7E738B5064D0023044608462B6003
:102B2000FDF786FF431C02D12B6803B1236038BD3B
:102B3000780300200A44914200F1FF3300D170472E
:102B400010B511F8014B03F8014F9142F9D110BDB6
:102B50002DE9F041804615460C4621B9BDE8F0410B
:102B60001146FFF74BBC2AB9FFF7DCFB00242046D7
:102B7000BDE8F08100F01AF88542064602D8B5EBB0
:102B8000500FF4D829464046FFF738FC0746002886
:102B9000ECD0B5422A46214628BF3246FFF7CAFF8D
:102BA00021464046FFF7BEFB3C46E0E751F8043CB7
:102BB000181F002BBCBF0B58C0187047F8B500BFDA
:102BC000F8BC08BC9E467047F8B500BFF8BC08BC0E
:042BD0009E46704766
:102BD4004D657373616765205472616E736D6974BA
:102BE4007465640D0A00464443414E2054455354D1
:102BF4002121004D657373616765205265636569C2
:102C04007665642025730D0A0000000000010203AC
:102C1400040000000000000000010203040607088D
:102C2400090001020304050607080C1014182030DB
:102C34004000010002000400060008000A000C0025
:102C44001000200040008000000108040204080174
:102C540001010101010307010000232D302B200095
:102C6400686C4C0065666745464700303132333442
:102C740035363738394142434445460030313233E2
:102C840034353637383961626364656600000000A4
:082C94008CD5FF7F0100000058
:042C9C000502000825
:042CA000E101000846
:102CA4000024F400010000001000000010000020C7
:102CB4000000000040020020A802002010030020B1
:102CC4000000000000000000000000000000000000
:102CD40000000000000000000000000000000000F0
:102CE40000000000000000000000000000000000E0
:0C2CF400000000000000000000000000D4
:0400000508000A8560
:00000001FF
